{
  "_format": "hh-sol-artifact-1",
  "contractName": "NFAGenesisBears",
  "sourceName": "contracts/NFAGenesisBears.sol",
  "abi": [
    {
      "inputs": [
        {
          "internalType": "address",
          "name": "initialOwner",
          "type": "address"
        }
      ],
      "stateMutability": "nonpayable",
      "type": "constructor"
    },
    {
      "inputs": [],
      "name": "ERC721EnumerableForbiddenBatchMint",
      "type": "error"
    },
    {
      "inputs": [
        {
          "internalType": "address",
          "name": "sender",
          "type": "address"
        },
        {
          "internalType": "uint256",
          "name": "tokenId",
          "type": "uint256"
        },
        {
          "internalType": "address",
          "name": "owner",
          "type": "address"
        }
      ],
      "name": "ERC721IncorrectOwner",
      "type": "error"
    },
    {
      "inputs": [
        {
          "internalType": "address",
          "name": "operator",
          "type": "address"
        },
        {
          "internalType": "uint256",
          "name": "tokenId",
          "type": "uint256"
        }
      ],
      "name": "ERC721InsufficientApproval",
      "type": "error"
    },
    {
      "inputs": [
        {
          "internalType": "address",
          "name": "approver",
          "type": "address"
        }
      ],
      "name": "ERC721InvalidApprover",
      "type": "error"
    },
    {
      "inputs": [
        {
          "internalType": "address",
          "name": "operator",
          "type": "address"
        }
      ],
      "name": "ERC721InvalidOperator",
      "type": "error"
    },
    {
      "inputs": [
        {
          "internalType": "address",
          "name": "owner",
          "type": "address"
        }
      ],
      "name": "ERC721InvalidOwner",
      "type": "error"
    },
    {
      "inputs": [
        {
          "internalType": "address",
          "name": "receiver",
          "type": "address"
        }
      ],
      "name": "ERC721InvalidReceiver",
      "type": "error"
    },
    {
      "inputs": [
        {
          "internalType": "address",
          "name": "sender",
          "type": "address"
        }
      ],
      "name": "ERC721InvalidSender",
      "type": "error"
    },
    {
      "inputs": [
        {
          "internalType": "uint256",
          "name": "tokenId",
          "type": "uint256"
        }
      ],
      "name": "ERC721NonexistentToken",
      "type": "error"
    },
    {
      "inputs": [
        {
          "internalType": "address",
          "name": "owner",
          "type": "address"
        },
        {
          "internalType": "uint256",
          "name": "index",
          "type": "uint256"
        }
      ],
      "name": "ERC721OutOfBoundsIndex",
      "type": "error"
    },
    {
      "inputs": [
        {
          "internalType": "address",
          "name": "owner",
          "type": "address"
        }
      ],
      "name": "OwnableInvalidOwner",
      "type": "error"
    },
    {
      "inputs": [
        {
          "internalType": "address",
          "name": "account",
          "type": "address"
        }
      ],
      "name": "OwnableUnauthorizedAccount",
      "type": "error"
    },
    {
      "anonymous": false,
      "inputs": [
        {
          "indexed": true,
          "internalType": "address",
          "name": "owner",
          "type": "address"
        },
        {
          "indexed": true,
          "internalType": "address",
          "name": "approved",
          "type": "address"
        },
        {
          "indexed": true,
          "internalType": "uint256",
          "name": "tokenId",
          "type": "uint256"
        }
      ],
      "name": "Approval",
      "type": "event"
    },
    {
      "anonymous": false,
      "inputs": [
        {
          "indexed": true,
          "internalType": "address",
          "name": "owner",
          "type": "address"
        },
        {
          "indexed": true,
          "internalType": "address",
          "name": "operator",
          "type": "address"
        },
        {
          "indexed": false,
          "internalType": "bool",
          "name": "approved",
          "type": "bool"
        }
      ],
      "name": "ApprovalForAll",
      "type": "event"
    },
    {
      "anonymous": false,
      "inputs": [
        {
          "indexed": true,
          "internalType": "address",
          "name": "to",
          "type": "address"
        },
        {
          "indexed": true,
          "internalType": "uint256",
          "name": "tokenId",
          "type": "uint256"
        }
      ],
      "name": "BearMinted",
      "type": "event"
    },
    {
      "anonymous": false,
      "inputs": [
        {
          "indexed": true,
          "internalType": "address",
          "name": "previousOwner",
          "type": "address"
        },
        {
          "indexed": true,
          "internalType": "address",
          "name": "newOwner",
          "type": "address"
        }
      ],
      "name": "OwnershipTransferred",
      "type": "event"
    },
    {
      "anonymous": false,
      "inputs": [
        {
          "indexed": true,
          "internalType": "address",
          "name": "from",
          "type": "address"
        },
        {
          "indexed": true,
          "internalType": "address",
          "name": "to",
          "type": "address"
        },
        {
          "indexed": true,
          "internalType": "uint256",
          "name": "tokenId",
          "type": "uint256"
        }
      ],
      "name": "Transfer",
      "type": "event"
    },
    {
      "inputs": [],
      "name": "MAX_PER_WALLET",
      "outputs": [
        {
          "internalType": "uint256",
          "name": "",
          "type": "uint256"
        }
      ],
      "stateMutability": "view",
      "type": "function"
    },
    {
      "inputs": [],
      "name": "MAX_SUPPLY",
      "outputs": [
        {
          "internalType": "uint256",
          "name": "",
          "type": "uint256"
        }
      ],
      "stateMutability": "view",
      "type": "function"
    },
    {
      "inputs": [
        {
          "internalType": "address",
          "name": "to",
          "type": "address"
        },
        {
          "internalType": "uint256",
          "name": "tokenId",
          "type": "uint256"
        }
      ],
      "name": "approve",
      "outputs": [],
      "stateMutability": "nonpayable",
      "type": "function"
    },
    {
      "inputs": [
        {
          "internalType": "address",
          "name": "owner",
          "type": "address"
        }
      ],
      "name": "balanceOf",
      "outputs": [
        {
          "internalType": "uint256",
          "name": "",
          "type": "uint256"
        }
      ],
      "stateMutability": "view",
      "type": "function"
    },
    {
      "inputs": [
        {
          "internalType": "uint256",
          "name": "tokenId",
          "type": "uint256"
        }
      ],
      "name": "getApproved",
      "outputs": [
        {
          "internalType": "address",
          "name": "",
          "type": "address"
        }
      ],
      "stateMutability": "view",
      "type": "function"
    },
    {
      "inputs": [
        {
          "internalType": "address",
          "name": "owner",
          "type": "address"
        },
        {
          "internalType": "address",
          "name": "operator",
          "type": "address"
        }
      ],
      "name": "isApprovedForAll",
      "outputs": [
        {
          "internalType": "bool",
          "name": "",
          "type": "bool"
        }
      ],
      "stateMutability": "view",
      "type": "function"
    },
    {
      "inputs": [
        {
          "internalType": "address",
          "name": "owner",
          "type": "address"
        }
      ],
      "name": "isGenesisBearHolder",
      "outputs": [
        {
          "internalType": "bool",
          "name": "",
          "type": "bool"
        }
      ],
      "stateMutability": "view",
      "type": "function"
    },
    {
      "inputs": [
        {
          "internalType": "address",
          "name": "to",
          "type": "address"
        },
        {
          "internalType": "uint256",
          "name": "quantity",
          "type": "uint256"
        }
      ],
      "name": "mint",
      "outputs": [],
      "stateMutability": "nonpayable",
      "type": "function"
    },
    {
      "inputs": [
        {
          "internalType": "address",
          "name": "",
          "type": "address"
        }
      ],
      "name": "mintedPerWallet",
      "outputs": [
        {
          "internalType": "uint256",
          "name": "",
          "type": "uint256"
        }
      ],
      "stateMutability": "view",
      "type": "function"
    },
    {
      "inputs": [],
      "name": "name",
      "outputs": [
        {
          "internalType": "string",
          "name": "",
          "type": "string"
        }
      ],
      "stateMutability": "view",
      "type": "function"
    },
    {
      "inputs": [],
      "name": "owner",
      "outputs": [
        {
          "internalType": "address",
          "name": "",
          "type": "address"
        }
      ],
      "stateMutability": "view",
      "type": "function"
    },
    {
      "inputs": [
        {
          "internalType": "uint256",
          "name": "tokenId",
          "type": "uint256"
        }
      ],
      "name": "ownerOf",
      "outputs": [
        {
          "internalType": "address",
          "name": "",
          "type": "address"
        }
      ],
      "stateMutability": "view",
      "type": "function"
    },
    {
      "inputs": [
        {
          "internalType": "uint256",
          "name": "quantity",
          "type": "uint256"
        }
      ],
      "name": "publicMint",
      "outputs": [],
      "stateMutability": "nonpayable",
      "type": "function"
    },
    {
      "inputs": [],
      "name": "renounceOwnership",
      "outputs": [],
      "stateMutability": "nonpayable",
      "type": "function"
    },
    {
      "inputs": [
        {
          "internalType": "address",
          "name": "from",
          "type": "address"
        },
        {
          "internalType": "address",
          "name": "to",
          "type": "address"
        },
        {
          "internalType": "uint256",
          "name": "tokenId",
          "type": "uint256"
        }
      ],
      "name": "safeTransferFrom",
      "outputs": [],
      "stateMutability": "nonpayable",
      "type": "function"
    },
    {
      "inputs": [
        {
          "internalType": "address",
          "name": "from",
          "type": "address"
        },
        {
          "internalType": "address",
          "name": "to",
          "type": "address"
        },
        {
          "internalType": "uint256",
          "name": "tokenId",
          "type": "uint256"
        },
        {
          "internalType": "bytes",
          "name": "data",
          "type": "bytes"
        }
      ],
      "name": "safeTransferFrom",
      "outputs": [],
      "stateMutability": "nonpayable",
      "type": "function"
    },
    {
      "inputs": [
        {
          "internalType": "address",
          "name": "operator",
          "type": "address"
        },
        {
          "internalType": "bool",
          "name": "approved",
          "type": "bool"
        }
      ],
      "name": "setApprovalForAll",
      "outputs": [],
      "stateMutability": "nonpayable",
      "type": "function"
    },
    {
      "inputs": [
        {
          "internalType": "string",
          "name": "baseURI",
          "type": "string"
        }
      ],
      "name": "setBaseURI",
      "outputs": [],
      "stateMutability": "nonpayable",
      "type": "function"
    },
    {
      "inputs": [
        {
          "internalType": "bytes4",
          "name": "interfaceId",
          "type": "bytes4"
        }
      ],
      "name": "supportsInterface",
      "outputs": [
        {
          "internalType": "bool",
          "name": "",
          "type": "bool"
        }
      ],
      "stateMutability": "view",
      "type": "function"
    },
    {
      "inputs": [],
      "name": "symbol",
      "outputs": [
        {
          "internalType": "string",
          "name": "",
          "type": "string"
        }
      ],
      "stateMutability": "view",
      "type": "function"
    },
    {
      "inputs": [
        {
          "internalType": "uint256",
          "name": "index",
          "type": "uint256"
        }
      ],
      "name": "tokenByIndex",
      "outputs": [
        {
          "internalType": "uint256",
          "name": "",
          "type": "uint256"
        }
      ],
      "stateMutability": "view",
      "type": "function"
    },
    {
      "inputs": [
        {
          "internalType": "address",
          "name": "owner",
          "type": "address"
        },
        {
          "internalType": "uint256",
          "name": "index",
          "type": "uint256"
        }
      ],
      "name": "tokenOfOwnerByIndex",
      "outputs": [
        {
          "internalType": "uint256",
          "name": "",
          "type": "uint256"
        }
      ],
      "stateMutability": "view",
      "type": "function"
    },
    {
      "inputs": [
        {
          "internalType": "uint256",
          "name": "tokenId",
          "type": "uint256"
        }
      ],
      "name": "tokenURI",
      "outputs": [
        {
          "internalType": "string",
          "name": "",
          "type": "string"
        }
      ],
      "stateMutability": "view",
      "type": "function"
    },
    {
      "inputs": [
        {
          "internalType": "address",
          "name": "owner",
          "type": "address"
        }
      ],
      "name": "tokensOfOwner",
      "outputs": [
        {
          "internalType": "uint256[]",
          "name": "",
          "type": "uint256[]"
        }
      ],
      "stateMutability": "view",
      "type": "function"
    },
    {
      "inputs": [],
      "name": "totalSupply",
      "outputs": [
        {
          "internalType": "uint256",
          "name": "",
          "type": "uint256"
        }
      ],
      "stateMutability": "view",
      "type": "function"
    },
    {
      "inputs": [
        {
          "internalType": "address",
          "name": "from",
          "type": "address"
        },
        {
          "internalType": "address",
          "name": "to",
          "type": "address"
        },
        {
          "internalType": "uint256",
          "name": "tokenId",
          "type": "uint256"
        }
      ],
      "name": "transferFrom",
      "outputs": [],
      "stateMutability": "nonpayable",
      "type": "function"
    },
    {
      "inputs": [
        {
          "internalType": "address",
          "name": "newOwner",
          "type": "address"
        }
      ],
      "name": "transferOwnership",
      "outputs": [],
      "stateMutability": "nonpayable",
      "type": "function"
    }
  ],
  "bytecode": "0x60806040523480156200001157600080fd5b5060405162001f2938038062001f2983398101604081905262000034916200015d565b80604051806040016040528060118152602001704e46412047656e6573697320426561727360781b81525060405180604001604052806004815260200163272320a160e11b81525081600090816200008d919062000236565b5060016200009c828262000236565b5050506001600160a01b038116620000ce57604051631e4fbdf760e01b81526000600482015260240160405180910390fd5b620000d9816200010b565b5060405180606001604052806026815260200162001f0360269139600b9062000103908262000236565b505062000302565b600a80546001600160a01b038381166001600160a01b0319831681179093556040519116919082907f8be0079c531659141344cd1fd0a4f28419497f9722a3daafe3b4186f6b6457e090600090a35050565b6000602082840312156200017057600080fd5b81516001600160a01b03811681146200018857600080fd5b9392505050565b634e487b7160e01b600052604160045260246000fd5b600181811c90821680620001ba57607f821691505b602082108103620001db57634e487b7160e01b600052602260045260246000fd5b50919050565b601f82111562000231576000816000526020600020601f850160051c810160208610156200020c5750805b601f850160051c820191505b818110156200022d5782815560010162000218565b5050505b505050565b81516001600160401b038111156200025257620002526200018f565b6200026a81620002638454620001a5565b84620001e1565b602080601f831160018114620002a25760008415620002895750858301515b600019600386901b1c1916600185901b1785556200022d565b600085815260208120601f198616915b82811015620002d357888601518255948401946001909101908401620002b2565b5085821015620002f25787850151600019600388901b60f8161c191681555b5050505050600190811b01905550565b611bf180620003126000396000f3fe608060405234801561001057600080fd5b50600436106101a95760003560e01c80634f6ccce7116100f95780638da5cb5b11610097578063b88d4fde11610071578063b88d4fde14610384578063c87b56dd14610397578063e985e9c5146103aa578063f2fde38b146103bd57600080fd5b80638da5cb5b1461035857806395d89b4114610369578063a22cb4651461037157600080fd5b806370a08231116100d357806370a082311461030a578063715018a61461031d57806375577ecb146103255780638462151c1461033857600080fd5b80634f6ccce7146102d157806355f804b3146102e45780636352211e146102f757600080fd5b806323b872dd1161016657806332cb6b0c1161014057806332cb6b0c146102825780633a602b4d1461028b57806340c10f19146102ab57806342842e0e146102be57600080fd5b806323b872dd146102495780632db115441461025c5780632f745c591461026f57600080fd5b806301ffc9a7146101ae57806306fdde03146101d6578063081812fc146101eb578063095ea7b3146102165780630f2cdd6c1461022b57806318160ddd14610241575b600080fd5b6101c16101bc366004611612565b6103d0565b60405190151581526020015b60405180910390f35b6101de6103e1565b6040516101cd919061167f565b6101fe6101f9366004611692565b610473565b6040516001600160a01b0390911681526020016101cd565b6102296102243660046116c7565b61049c565b005b610233600581565b6040519081526020016101cd565b600854610233565b6102296102573660046116f1565b6104ab565b61022961026a366004611692565b61053b565b61023361027d3660046116c7565b6106d9565b6102336102c681565b61023361029936600461172d565b600c6020526000908152604090205481565b6102296102b93660046116c7565b61073e565b6102296102cc3660046116f1565b610904565b6102336102df366004611692565b61091f565b6102296102f2366004611748565b610978565b6101fe610305366004611692565b61098d565b61023361031836600461172d565b610998565b6102296109e0565b6101c161033336600461172d565b6109f4565b61034b61034636600461172d565b610a07565b6040516101cd91906117ba565b600a546001600160a01b03166101fe565b6101de610ab9565b61022961037f3660046117fe565b610ac8565b610229610392366004611850565b610ad3565b6101de6103a5366004611692565b610aeb565b6101c16103b836600461192c565b610b53565b6102296103cb36600461172d565b610b81565b60006103db82610bbf565b92915050565b6060600080546103f09061195f565b80601f016020809104026020016040519081016040528092919081815260200182805461041c9061195f565b80156104695780601f1061043e57610100808354040283529160200191610469565b820191906000526020600020905b81548152906001019060200180831161044c57829003601f168201915b5050505050905090565b600061047e82610be4565b506000828152600460205260409020546001600160a01b03166103db565b6104a7828233610c1d565b5050565b6001600160a01b0382166104da57604051633250574960e11b8152600060048201526024015b60405180910390fd5b60006104e7838333610c2a565b9050836001600160a01b0316816001600160a01b031614610535576040516364283d7b60e01b81526001600160a01b03808616600483015260248201849052821660448201526064016104d1565b50505050565b60008111801561054c575060038111155b61058b5760405162461bcd60e51b815260206004820152601060248201526f496e76616c6964207175616e7469747960801b60448201526064016104d1565b6102c68161059860085490565b6105a291906119af565b11156105ea5760405162461bcd60e51b8152602060048201526017602482015276576f756c6420657863656564206d617820737570706c7960481b60448201526064016104d1565b336000908152600c60205260409020546005906106089083906119af565b11156106565760405162461bcd60e51b815260206004820152601b60248201527f576f756c6420657863656564206d6178207065722077616c6c6574000000000060448201526064016104d1565b60005b818110156104a757600061066c60085490565b6106779060016119af565b90506106833382610c3f565b336000908152600c6020526040812080549161069e836119c2565b9091555050604051819033907fd5ef8e4fda9a26fbd9257d3a0a490622cf41819ab1c4b54cd54463a56f55984b90600090a350600101610659565b60006106e483610998565b82106107155760405163295f44f760e21b81526001600160a01b0384166004820152602481018390526044016104d1565b506001600160a01b03919091166000908152600660209081526040808320938352929052205490565b610746610c59565b600081116107965760405162461bcd60e51b815260206004820152601f60248201527f5175616e74697479206d7573742062652067726561746572207468616e20300060448201526064016104d1565b6102c6816107a360085490565b6107ad91906119af565b11156107f55760405162461bcd60e51b8152602060048201526017602482015276576f756c6420657863656564206d617820737570706c7960481b60448201526064016104d1565b6001600160a01b0382166000908152600c602052604090205460059061081c9083906119af565b111561086a5760405162461bcd60e51b815260206004820152601b60248201527f576f756c6420657863656564206d6178207065722077616c6c6574000000000060448201526064016104d1565b60005b818110156108ff57600061088060085490565b61088b9060016119af565b90506108978482610c3f565b6001600160a01b0384166000908152600c602052604081208054916108bb836119c2565b909155505060405181906001600160a01b038616907fd5ef8e4fda9a26fbd9257d3a0a490622cf41819ab1c4b54cd54463a56f55984b90600090a35060010161086d565b505050565b6108ff83838360405180602001604052806000815250610ad3565b600061092a60085490565b82106109535760405163295f44f760e21b815260006004820152602481018390526044016104d1565b60088281548110610966576109666119db565b90600052602060002001549050919050565b610980610c59565b600b6108ff828483611a39565b60006103db82610be4565b60006001600160a01b0382166109c4576040516322718ad960e21b8152600060048201526024016104d1565b506001600160a01b031660009081526003602052604090205490565b6109e8610c59565b6109f26000610c86565b565b600080610a0083610998565b1192915050565b60606000610a1483610998565b905080600003610a385760408051600080825260208201909252905b509392505050565b60008167ffffffffffffffff811115610a5357610a5361183a565b604051908082528060200260200182016040528015610a7c578160200160208202803683370190505b50905060005b82811015610a3057610a9485826106d9565b828281518110610aa657610aa66119db565b6020908102919091010152600101610a82565b6060600180546103f09061195f565b6104a7338383610cd8565b610ade8484846104ab565b6105353385858585610d77565b6060610af682610be4565b506000610b01610ea2565b90506000815111610b215760405180602001604052806000815250610b4c565b80610b2b84610eb1565b604051602001610b3c929190611af9565b6040516020818303038152906040525b9392505050565b6001600160a01b03918216600090815260056020908152604080832093909416825291909152205460ff1690565b610b89610c59565b6001600160a01b038116610bb357604051631e4fbdf760e01b8152600060048201526024016104d1565b610bbc81610c86565b50565b60006001600160e01b0319821663780e9d6360e01b14806103db57506103db82610f44565b6000818152600260205260408120546001600160a01b0316806103db57604051637e27328960e01b8152600481018490526024016104d1565b6108ff8383836001610f94565b6000610c3784848461109a565b949350505050565b6104a7828260405180602001604052806000815250611167565b600a546001600160a01b031633146109f25760405163118cdaa760e01b81523360048201526024016104d1565b600a80546001600160a01b038381166001600160a01b0319831681179093556040519116919082907f8be0079c531659141344cd1fd0a4f28419497f9722a3daafe3b4186f6b6457e090600090a35050565b6001600160a01b038216610d0a57604051630b61174360e31b81526001600160a01b03831660048201526024016104d1565b6001600160a01b03838116600081815260056020908152604080832094871680845294825291829020805460ff191686151590811790915591519182527f17307eab39ab6107e8899845ad3d59bd9653f200f220920489ca2b5937696c31910160405180910390a3505050565b6001600160a01b0383163b15610e9b57604051630a85bd0160e11b81526001600160a01b0384169063150b7a0290610db9908890889087908790600401611b38565b6020604051808303816000875af1925050508015610df4575060408051601f3d908101601f19168201909252610df191810190611b75565b60015b610e5d573d808015610e22576040519150601f19603f3d011682016040523d82523d6000602084013e610e27565b606091505b508051600003610e5557604051633250574960e11b81526001600160a01b03851660048201526024016104d1565b805160208201fd5b6001600160e01b03198116630a85bd0160e11b14610e9957604051633250574960e11b81526001600160a01b03851660048201526024016104d1565b505b5050505050565b6060600b80546103f09061195f565b60606000610ebe8361117f565b600101905060008167ffffffffffffffff811115610ede57610ede61183a565b6040519080825280601f01601f191660200182016040528015610f08576020820181803683370190505b5090508181016020015b600019016f181899199a1a9b1b9c1cb0b131b232b360811b600a86061a8153600a8504945084610f1257509392505050565b60006001600160e01b031982166380ac58cd60e01b1480610f7557506001600160e01b03198216635b5e139f60e01b145b806103db57506301ffc9a760e01b6001600160e01b03198316146103db565b8080610fa857506001600160a01b03821615155b1561106a576000610fb884610be4565b90506001600160a01b03831615801590610fe45750826001600160a01b0316816001600160a01b031614155b8015610ff75750610ff58184610b53565b155b156110205760405163a9fbf51f60e01b81526001600160a01b03841660048201526024016104d1565b81156110685783856001600160a01b0316826001600160a01b03167f8c5be1e5ebec7d5bd14f71427d1e84f3dd0314c0f7b2291e5b200ac8c7c3b92560405160405180910390a45b505b5050600090815260046020526040902080546001600160a01b0319166001600160a01b0392909216919091179055565b6000806110a8858585611257565b90506001600160a01b0381166111055761110084600880546000838152600960205260408120829055600182018355919091527ff3f7a9fe364faab93b216da50a3214154f22a0a2b415b23a84c8169e8b636ee30155565b611128565b846001600160a01b0316816001600160a01b031614611128576111288185611350565b6001600160a01b0385166111445761113f846113d1565b610c37565b846001600160a01b0316816001600160a01b031614610c3757610c378585611480565b61117183836114d0565b6108ff336000858585610d77565b60008072184f03e93ff9f4daa797ed6e38ed64bf6a1f0160401b83106111be5772184f03e93ff9f4daa797ed6e38ed64bf6a1f0160401b830492506040015b6d04ee2d6d415b85acef810000000083106111ea576d04ee2d6d415b85acef8100000000830492506020015b662386f26fc10000831061120857662386f26fc10000830492506010015b6305f5e1008310611220576305f5e100830492506008015b612710831061123457612710830492506004015b60648310611246576064830492506002015b600a83106103db5760010192915050565b6000828152600260205260408120546001600160a01b039081169083161561128457611284818486611535565b6001600160a01b038116156112c2576112a1600085600080610f94565b6001600160a01b038116600090815260036020526040902080546000190190555b6001600160a01b038516156112f1576001600160a01b0385166000908152600360205260409020805460010190555b60008481526002602052604080822080546001600160a01b0319166001600160a01b0389811691821790925591518793918516917fddf252ad1be2c89b69c2b068fc378daa952ba7f163c4a11628f55a4df523b3ef91a4949350505050565b600061135b83610998565b6000838152600760209081526040808320546001600160a01b03881684526006909252909120919250908183146113b257600083815260208281526040808320548584528184208190558352600790915290208290555b6000938452600760209081526040808620869055938552525081205550565b6008546000906113e390600190611b92565b6000838152600960205260408120546008805493945090928490811061140b5761140b6119db565b90600052602060002001549050806008838154811061142c5761142c6119db565b600091825260208083209091019290925582815260099091526040808220849055858252812055600880548061146457611464611ba5565b6001900381819060005260206000200160009055905550505050565b6000600161148d84610998565b6114979190611b92565b6001600160a01b039093166000908152600660209081526040808320868452825280832085905593825260079052919091209190915550565b6001600160a01b0382166114fa57604051633250574960e11b8152600060048201526024016104d1565b600061150883836000610c2a565b90506001600160a01b038116156108ff576040516339e3563760e11b8152600060048201526024016104d1565b611540838383611599565b6108ff576001600160a01b03831661156e57604051637e27328960e01b8152600481018290526024016104d1565b60405163177e802f60e01b81526001600160a01b0383166004820152602481018290526044016104d1565b60006001600160a01b03831615801590610c375750826001600160a01b0316846001600160a01b031614806115d357506115d38484610b53565b80610c375750506000908152600460205260409020546001600160a01b03908116911614919050565b6001600160e01b031981168114610bbc57600080fd5b60006020828403121561162457600080fd5b8135610b4c816115fc565b60005b8381101561164a578181015183820152602001611632565b50506000910152565b6000815180845261166b81602086016020860161162f565b601f01601f19169290920160200192915050565b602081526000610b4c6020830184611653565b6000602082840312156116a457600080fd5b5035919050565b80356001600160a01b03811681146116c257600080fd5b919050565b600080604083850312156116da57600080fd5b6116e3836116ab565b946020939093013593505050565b60008060006060848603121561170657600080fd5b61170f846116ab565b925061171d602085016116ab565b9150604084013590509250925092565b60006020828403121561173f57600080fd5b610b4c826116ab565b6000806020838503121561175b57600080fd5b823567ffffffffffffffff8082111561177357600080fd5b818501915085601f83011261178757600080fd5b81358181111561179657600080fd5b8660208285010111156117a857600080fd5b60209290920196919550909350505050565b6020808252825182820181905260009190848201906040850190845b818110156117f2578351835292840192918401916001016117d6565b50909695505050505050565b6000806040838503121561181157600080fd5b61181a836116ab565b91506020830135801515811461182f57600080fd5b809150509250929050565b634e487b7160e01b600052604160045260246000fd5b6000806000806080858703121561186657600080fd5b61186f856116ab565b935061187d602086016116ab565b925060408501359150606085013567ffffffffffffffff808211156118a157600080fd5b818701915087601f8301126118b557600080fd5b8135818111156118c7576118c761183a565b604051601f8201601f19908116603f011681019083821181831017156118ef576118ef61183a565b816040528281528a602084870101111561190857600080fd5b82602086016020830137600060208483010152809550505050505092959194509250565b6000806040838503121561193f57600080fd5b611948836116ab565b9150611956602084016116ab565b90509250929050565b600181811c9082168061197357607f821691505b60208210810361199357634e487b7160e01b600052602260045260246000fd5b50919050565b634e487b7160e01b600052601160045260246000fd5b808201808211156103db576103db611999565b6000600182016119d4576119d4611999565b5060010190565b634e487b7160e01b600052603260045260246000fd5b601f8211156108ff576000816000526020600020601f850160051c81016020861015611a1a5750805b601f850160051c820191505b81811015610e9957828155600101611a26565b67ffffffffffffffff831115611a5157611a5161183a565b611a6583611a5f835461195f565b836119f1565b6000601f841160018114611a995760008515611a815750838201355b600019600387901b1c1916600186901b178355610e9b565b600083815260209020601f19861690835b82811015611aca5786850135825560209485019460019092019101611aaa565b5086821015611ae75760001960f88860031b161c19848701351681555b505060018560011b0183555050505050565b60008351611b0b81846020880161162f565b835190830190611b1f81836020880161162f565b64173539b7b760d91b9101908152600501949350505050565b6001600160a01b0385811682528416602082015260408101839052608060608201819052600090611b6b90830184611653565b9695505050505050565b600060208284031215611b8757600080fd5b8151610b4c816115fc565b818103818111156103db576103db611999565b634e487b7160e01b600052603160045260246000fdfea264697066735822122070201ba362fdef5a5eaa8d937bb8d7df7b72a0db59720a4d4afa53f315297f9964736f6c6343000818003368747470733a2f2f6e666162656172732e78797a2f6d657461646174612f67656e657369732f",
  "linkReferences": {},
  "deployedLinkReferences": {}
}