{
  "_format": "hh-sol-artifact-1",
  "contractName": "NFABearsMembership",
  "sourceName": "contracts/NFABearsMembership.sol",
  "abi": [
    {
      "inputs": [],
      "stateMutability": "nonpayable",
      "type": "constructor"
    },
    {
      "inputs": [
        {
          "internalType": "address",
          "name": "sender",
          "type": "address"
        },
        {
          "internalType": "uint256",
          "name": "tokenId",
          "type": "uint256"
        },
        {
          "internalType": "address",
          "name": "owner",
          "type": "address"
        }
      ],
      "name": "ERC721IncorrectOwner",
      "type": "error"
    },
    {
      "inputs": [
        {
          "internalType": "address",
          "name": "operator",
          "type": "address"
        },
        {
          "internalType": "uint256",
          "name": "tokenId",
          "type": "uint256"
        }
      ],
      "name": "ERC721InsufficientApproval",
      "type": "error"
    },
    {
      "inputs": [
        {
          "internalType": "address",
          "name": "approver",
          "type": "address"
        }
      ],
      "name": "ERC721InvalidApprover",
      "type": "error"
    },
    {
      "inputs": [
        {
          "internalType": "address",
          "name": "operator",
          "type": "address"
        }
      ],
      "name": "ERC721InvalidOperator",
      "type": "error"
    },
    {
      "inputs": [
        {
          "internalType": "address",
          "name": "owner",
          "type": "address"
        }
      ],
      "name": "ERC721InvalidOwner",
      "type": "error"
    },
    {
      "inputs": [
        {
          "internalType": "address",
          "name": "receiver",
          "type": "address"
        }
      ],
      "name": "ERC721InvalidReceiver",
      "type": "error"
    },
    {
      "inputs": [
        {
          "internalType": "address",
          "name": "sender",
          "type": "address"
        }
      ],
      "name": "ERC721InvalidSender",
      "type": "error"
    },
    {
      "inputs": [
        {
          "internalType": "uint256",
          "name": "tokenId",
          "type": "uint256"
        }
      ],
      "name": "ERC721NonexistentToken",
      "type": "error"
    },
    {
      "inputs": [
        {
          "internalType": "address",
          "name": "owner",
          "type": "address"
        }
      ],
      "name": "OwnableInvalidOwner",
      "type": "error"
    },
    {
      "inputs": [
        {
          "internalType": "address",
          "name": "account",
          "type": "address"
        }
      ],
      "name": "OwnableUnauthorizedAccount",
      "type": "error"
    },
    {
      "anonymous": false,
      "inputs": [
        {
          "indexed": true,
          "internalType": "address",
          "name": "owner",
          "type": "address"
        },
        {
          "indexed": true,
          "internalType": "address",
          "name": "approved",
          "type": "address"
        },
        {
          "indexed": true,
          "internalType": "uint256",
          "name": "tokenId",
          "type": "uint256"
        }
      ],
      "name": "Approval",
      "type": "event"
    },
    {
      "anonymous": false,
      "inputs": [
        {
          "indexed": true,
          "internalType": "address",
          "name": "owner",
          "type": "address"
        },
        {
          "indexed": true,
          "internalType": "address",
          "name": "operator",
          "type": "address"
        },
        {
          "indexed": false,
          "internalType": "bool",
          "name": "approved",
          "type": "bool"
        }
      ],
      "name": "ApprovalForAll",
      "type": "event"
    },
    {
      "anonymous": false,
      "inputs": [
        {
          "indexed": true,
          "internalType": "address",
          "name": "previousOwner",
          "type": "address"
        },
        {
          "indexed": true,
          "internalType": "address",
          "name": "newOwner",
          "type": "address"
        }
      ],
      "name": "OwnershipTransferred",
      "type": "event"
    },
    {
      "anonymous": false,
      "inputs": [
        {
          "indexed": true,
          "internalType": "address",
          "name": "from",
          "type": "address"
        },
        {
          "indexed": true,
          "internalType": "address",
          "name": "to",
          "type": "address"
        },
        {
          "indexed": true,
          "internalType": "uint256",
          "name": "tokenId",
          "type": "uint256"
        }
      ],
      "name": "Transfer",
      "type": "event"
    },
    {
      "inputs": [
        {
          "internalType": "address",
          "name": "to",
          "type": "address"
        },
        {
          "internalType": "uint256",
          "name": "tokenId",
          "type": "uint256"
        }
      ],
      "name": "approve",
      "outputs": [],
      "stateMutability": "nonpayable",
      "type": "function"
    },
    {
      "inputs": [
        {
          "internalType": "address",
          "name": "owner",
          "type": "address"
        }
      ],
      "name": "balanceOf",
      "outputs": [
        {
          "internalType": "uint256",
          "name": "",
          "type": "uint256"
        }
      ],
      "stateMutability": "view",
      "type": "function"
    },
    {
      "inputs": [
        {
          "internalType": "uint256",
          "name": "tokenId",
          "type": "uint256"
        }
      ],
      "name": "getApproved",
      "outputs": [
        {
          "internalType": "address",
          "name": "",
          "type": "address"
        }
      ],
      "stateMutability": "view",
      "type": "function"
    },
    {
      "inputs": [
        {
          "internalType": "address",
          "name": "wallet",
          "type": "address"
        }
      ],
      "name": "hasMinted",
      "outputs": [
        {
          "internalType": "bool",
          "name": "",
          "type": "bool"
        }
      ],
      "stateMutability": "view",
      "type": "function"
    },
    {
      "inputs": [
        {
          "internalType": "address",
          "name": "owner",
          "type": "address"
        },
        {
          "internalType": "address",
          "name": "operator",
          "type": "address"
        }
      ],
      "name": "isApprovedForAll",
      "outputs": [
        {
          "internalType": "bool",
          "name": "",
          "type": "bool"
        }
      ],
      "stateMutability": "view",
      "type": "function"
    },
    {
      "inputs": [
        {
          "internalType": "address",
          "name": "to",
          "type": "address"
        }
      ],
      "name": "mintMembership",
      "outputs": [
        {
          "internalType": "uint256",
          "name": "",
          "type": "uint256"
        }
      ],
      "stateMutability": "nonpayable",
      "type": "function"
    },
    {
      "inputs": [],
      "name": "name",
      "outputs": [
        {
          "internalType": "string",
          "name": "",
          "type": "string"
        }
      ],
      "stateMutability": "view",
      "type": "function"
    },
    {
      "inputs": [],
      "name": "owner",
      "outputs": [
        {
          "internalType": "address",
          "name": "",
          "type": "address"
        }
      ],
      "stateMutability": "view",
      "type": "function"
    },
    {
      "inputs": [
        {
          "internalType": "uint256",
          "name": "tokenId",
          "type": "uint256"
        }
      ],
      "name": "ownerOf",
      "outputs": [
        {
          "internalType": "address",
          "name": "",
          "type": "address"
        }
      ],
      "stateMutability": "view",
      "type": "function"
    },
    {
      "inputs": [],
      "name": "renounceOwnership",
      "outputs": [],
      "stateMutability": "nonpayable",
      "type": "function"
    },
    {
      "inputs": [
        {
          "internalType": "address",
          "name": "from",
          "type": "address"
        },
        {
          "internalType": "address",
          "name": "to",
          "type": "address"
        },
        {
          "internalType": "uint256",
          "name": "tokenId",
          "type": "uint256"
        }
      ],
      "name": "safeTransferFrom",
      "outputs": [],
      "stateMutability": "nonpayable",
      "type": "function"
    },
    {
      "inputs": [
        {
          "internalType": "address",
          "name": "from",
          "type": "address"
        },
        {
          "internalType": "address",
          "name": "to",
          "type": "address"
        },
        {
          "internalType": "uint256",
          "name": "tokenId",
          "type": "uint256"
        },
        {
          "internalType": "bytes",
          "name": "data",
          "type": "bytes"
        }
      ],
      "name": "safeTransferFrom",
      "outputs": [],
      "stateMutability": "nonpayable",
      "type": "function"
    },
    {
      "inputs": [
        {
          "internalType": "address",
          "name": "operator",
          "type": "address"
        },
        {
          "internalType": "bool",
          "name": "approved",
          "type": "bool"
        }
      ],
      "name": "setApprovalForAll",
      "outputs": [],
      "stateMutability": "nonpayable",
      "type": "function"
    },
    {
      "inputs": [
        {
          "internalType": "bytes4",
          "name": "interfaceId",
          "type": "bytes4"
        }
      ],
      "name": "supportsInterface",
      "outputs": [
        {
          "internalType": "bool",
          "name": "",
          "type": "bool"
        }
      ],
      "stateMutability": "view",
      "type": "function"
    },
    {
      "inputs": [],
      "name": "symbol",
      "outputs": [
        {
          "internalType": "string",
          "name": "",
          "type": "string"
        }
      ],
      "stateMutability": "view",
      "type": "function"
    },
    {
      "inputs": [
        {
          "internalType": "uint256",
          "name": "tokenId",
          "type": "uint256"
        }
      ],
      "name": "tokenURI",
      "outputs": [
        {
          "internalType": "string",
          "name": "",
          "type": "string"
        }
      ],
      "stateMutability": "view",
      "type": "function"
    },
    {
      "inputs": [
        {
          "internalType": "address",
          "name": "from",
          "type": "address"
        },
        {
          "internalType": "address",
          "name": "to",
          "type": "address"
        },
        {
          "internalType": "uint256",
          "name": "tokenId",
          "type": "uint256"
        }
      ],
      "name": "transferFrom",
      "outputs": [],
      "stateMutability": "nonpayable",
      "type": "function"
    },
    {
      "inputs": [
        {
          "internalType": "address",
          "name": "newOwner",
          "type": "address"
        }
      ],
      "name": "transferOwnership",
      "outputs": [],
      "stateMutability": "nonpayable",
      "type": "function"
    }
  ],
  "bytecode": "0x60806040523480156200001157600080fd5b5033604051806040016040528060118152602001704e4641204265617273204d697261636c6560781b815250604051806040016040528060078152602001664d495241434c4560c81b81525081600090816200006e9190620001ba565b5060016200007d8282620001ba565b5050506001600160a01b038116620000af57604051631e4fbdf760e01b81526000600482015260240160405180910390fd5b620000ba81620000c1565b5062000286565b600680546001600160a01b038381166001600160a01b0319831681179093556040519116919082907f8be0079c531659141344cd1fd0a4f28419497f9722a3daafe3b4186f6b6457e090600090a35050565b634e487b7160e01b600052604160045260246000fd5b600181811c908216806200013e57607f821691505b6020821081036200015f57634e487b7160e01b600052602260045260246000fd5b50919050565b601f821115620001b5576000816000526020600020601f850160051c81016020861015620001905750805b601f850160051c820191505b81811015620001b1578281556001016200019c565b5050505b505050565b81516001600160401b03811115620001d657620001d662000113565b620001ee81620001e7845462000129565b8462000165565b602080601f8311600181146200022657600084156200020d5750858301515b600019600386901b1c1916600185901b178555620001b1565b600085815260208120601f198616915b82811015620002575788860151825594840194600190910190840162000236565b5085821015620002765787850151600019600388901b60f8161c191681555b5050505050600190811b01905550565b61116a80620002966000396000f3fe608060405234801561001057600080fd5b50600436106101165760003560e01c806370a08231116100a2578063a22cb46511610071578063a22cb46514610252578063b88d4fde14610265578063c87b56dd14610273578063e985e9c514610286578063f2fde38b1461029957600080fd5b806370a082311461021e578063715018a6146102315780638da5cb5b1461023957806395d89b411461024a57600080fd5b806323b872dd116100e957806323b872dd1461019857806338e21cce146101ab57806342842e0e146101d757806352f404ab146101ea5780636352211e1461020b57600080fd5b806301ffc9a71461011b57806306fdde0314610143578063081812fc14610158578063095ea7b314610183575b600080fd5b61012e610129366004610db3565b6102ac565b60405190151581526020015b60405180910390f35b61014b6102fe565b60405161013a9190610e20565b61016b610166366004610e33565b610390565b6040516001600160a01b03909116815260200161013a565b610196610191366004610e68565b6103b9565b005b6101966101a6366004610e92565b6103c8565b61012e6101b9366004610ece565b6001600160a01b031660009081526008602052604090205460ff1690565b6101966101e5366004610e92565b610415565b6101fd6101f8366004610ece565b610435565b60405190815260200161013a565b61016b610219366004610e33565b6104e1565b6101fd61022c366004610ece565b6104ec565b610196610534565b6006546001600160a01b031661016b565b61014b610548565b610196610260366004610ee9565b610557565b6101966101a6366004610f3b565b61014b610281366004610e33565b610562565b61012e610294366004611017565b6105d7565b6101966102a7366004610ece565b610605565b60006001600160e01b031982166380ac58cd60e01b14806102dd57506001600160e01b03198216635b5e139f60e01b145b806102f857506301ffc9a760e01b6001600160e01b03198316145b92915050565b60606000805461030d9061104a565b80601f01602080910402602001604051908101604052809291908181526020018280546103399061104a565b80156103865780601f1061035b57610100808354040283529160200191610386565b820191906000526020600020905b81548152906001019060200180831161036957829003601f168201915b5050505050905090565b600061039b82610643565b506000828152600460205260409020546001600160a01b03166102f8565b6103c482823361067c565b5050565b60405162461bcd60e51b815260206004820152601c60248201527f536f756c2d626f756e643a206e6f6e2d7472616e7366657261626c650000000060448201526064015b60405180910390fd5b610430838383604051806020016040528060008152506103c8565b505050565b6001600160a01b03811660009081526008602052604081205460ff161561049e5760405162461bcd60e51b815260206004820152601960248201527f57616c6c657420616c72656164792068617320616e2053425400000000000000604482015260640161040c565b6001600160a01b0382166000908152600860205260408120805460ff1916600117905560078054916104cf83611084565b90915550506007546102f88382610689565b60006102f882610643565b60006001600160a01b038216610518576040516322718ad960e21b81526000600482015260240161040c565b506001600160a01b031660009081526003602052604090205490565b61053c6106a3565b61054660006106d0565b565b60606001805461030d9061104a565b6103c4338383610722565b606061056d82610643565b50600061058560408051602081019091526000815290565b905060008151116105a557604051806020016040528060008152506105d0565b806105af846107c1565b6040516020016105c09291906110ab565b6040516020818303038152906040525b9392505050565b6001600160a01b03918216600090815260056020908152604080832093909416825291909152205460ff1690565b61060d6106a3565b6001600160a01b03811661063757604051631e4fbdf760e01b81526000600482015260240161040c565b610640816106d0565b50565b6000818152600260205260408120546001600160a01b0316806102f857604051637e27328960e01b81526004810184905260240161040c565b6104308383836001610854565b6103c482826040518060200160405280600081525061095a565b6006546001600160a01b031633146105465760405163118cdaa760e01b815233600482015260240161040c565b600680546001600160a01b038381166001600160a01b0319831681179093556040519116919082907f8be0079c531659141344cd1fd0a4f28419497f9722a3daafe3b4186f6b6457e090600090a35050565b6001600160a01b03821661075457604051630b61174360e31b81526001600160a01b038316600482015260240161040c565b6001600160a01b03838116600081815260056020908152604080832094871680845294825291829020805460ff191686151590811790915591519182527f17307eab39ab6107e8899845ad3d59bd9653f200f220920489ca2b5937696c31910160405180910390a3505050565b606060006107ce83610972565b600101905060008167ffffffffffffffff8111156107ee576107ee610f25565b6040519080825280601f01601f191660200182016040528015610818576020820181803683370190505b5090508181016020015b600019016f181899199a1a9b1b9c1cb0b131b232b360811b600a86061a8153600a850494508461082257509392505050565b808061086857506001600160a01b03821615155b1561092a57600061087884610643565b90506001600160a01b038316158015906108a45750826001600160a01b0316816001600160a01b031614155b80156108b757506108b581846105d7565b155b156108e05760405163a9fbf51f60e01b81526001600160a01b038416600482015260240161040c565b81156109285783856001600160a01b0316826001600160a01b03167f8c5be1e5ebec7d5bd14f71427d1e84f3dd0314c0f7b2291e5b200ac8c7c3b92560405160405180910390a45b505b5050600090815260046020526040902080546001600160a01b0319166001600160a01b0392909216919091179055565b6109648383610a4a565b610430336000858585610aaf565b60008072184f03e93ff9f4daa797ed6e38ed64bf6a1f0160401b83106109b15772184f03e93ff9f4daa797ed6e38ed64bf6a1f0160401b830492506040015b6d04ee2d6d415b85acef810000000083106109dd576d04ee2d6d415b85acef8100000000830492506020015b662386f26fc1000083106109fb57662386f26fc10000830492506010015b6305f5e1008310610a13576305f5e100830492506008015b6127108310610a2757612710830492506004015b60648310610a39576064830492506002015b600a83106102f85760010192915050565b6001600160a01b038216610a7457604051633250574960e11b81526000600482015260240161040c565b6000610a8283836000610bda565b90506001600160a01b03811615610430576040516339e3563760e11b81526000600482015260240161040c565b6001600160a01b0383163b15610bd357604051630a85bd0160e11b81526001600160a01b0384169063150b7a0290610af19088908890879087906004016110da565b6020604051808303816000875af1925050508015610b2c575060408051601f3d908101601f19168201909252610b2991810190611117565b60015b610b95573d808015610b5a576040519150601f19603f3d011682016040523d82523d6000602084013e610b5f565b606091505b508051600003610b8d57604051633250574960e11b81526001600160a01b038516600482015260240161040c565b805160208201fd5b6001600160e01b03198116630a85bd0160e11b14610bd157604051633250574960e11b81526001600160a01b038516600482015260240161040c565b505b5050505050565b6000828152600260205260408120546001600160a01b0390811690831615610c0757610c07818486610cd3565b6001600160a01b03811615610c4557610c24600085600080610854565b6001600160a01b038116600090815260036020526040902080546000190190555b6001600160a01b03851615610c74576001600160a01b0385166000908152600360205260409020805460010190555b60008481526002602052604080822080546001600160a01b0319166001600160a01b0389811691821790925591518793918516917fddf252ad1be2c89b69c2b068fc378daa952ba7f163c4a11628f55a4df523b3ef91a4949350505050565b610cde838383610d37565b610430576001600160a01b038316610d0c57604051637e27328960e01b81526004810182905260240161040c565b60405163177e802f60e01b81526001600160a01b03831660048201526024810182905260440161040c565b60006001600160a01b03831615801590610d955750826001600160a01b0316846001600160a01b03161480610d715750610d7184846105d7565b80610d9557506000828152600460205260409020546001600160a01b038481169116145b949350505050565b6001600160e01b03198116811461064057600080fd5b600060208284031215610dc557600080fd5b81356105d081610d9d565b60005b83811015610deb578181015183820152602001610dd3565b50506000910152565b60008151808452610e0c816020860160208601610dd0565b601f01601f19169290920160200192915050565b6020815260006105d06020830184610df4565b600060208284031215610e4557600080fd5b5035919050565b80356001600160a01b0381168114610e6357600080fd5b919050565b60008060408385031215610e7b57600080fd5b610e8483610e4c565b946020939093013593505050565b600080600060608486031215610ea757600080fd5b610eb084610e4c565b9250610ebe60208501610e4c565b9150604084013590509250925092565b600060208284031215610ee057600080fd5b6105d082610e4c565b60008060408385031215610efc57600080fd5b610f0583610e4c565b915060208301358015158114610f1a57600080fd5b809150509250929050565b634e487b7160e01b600052604160045260246000fd5b60008060008060808587031215610f5157600080fd5b610f5a85610e4c565b9350610f6860208601610e4c565b925060408501359150606085013567ffffffffffffffff80821115610f8c57600080fd5b818701915087601f830112610fa057600080fd5b813581811115610fb257610fb2610f25565b604051601f8201601f19908116603f01168101908382118183101715610fda57610fda610f25565b816040528281528a6020848701011115610ff357600080fd5b82602086016020830137600060208483010152809550505050505092959194509250565b6000806040838503121561102a57600080fd5b61103383610e4c565b915061104160208401610e4c565b90509250929050565b600181811c9082168061105e57607f821691505b60208210810361107e57634e487b7160e01b600052602260045260246000fd5b50919050565b6000600182016110a457634e487b7160e01b600052601160045260246000fd5b5060010190565b600083516110bd818460208801610dd0565b8351908301906110d1818360208801610dd0565b01949350505050565b6001600160a01b038581168252841660208201526040810183905260806060820181905260009061110d90830184610df4565b9695505050505050565b60006020828403121561112957600080fd5b81516105d081610d9d56fea2646970667358221220cd38bdf00095af80bf5b774ba8ada58634810a658eb9676931dcfbb9f04fe32a64736f6c63430008180033",
  "linkReferences": {},
  "deployedLinkReferences": {}
}