{
  "_format": "hh-sol-artifact-1",
  "contractName": "NFABearsMembership",
  "sourceName": "contracts/NFABearsMembership.sol",
  "abi": [
    {
      "inputs": [],
      "stateMutability": "nonpayable",
      "type": "constructor"
    },
    {
      "inputs": [
        {
          "internalType": "address",
          "name": "sender",
          "type": "address"
        },
        {
          "internalType": "uint256",
          "name": "tokenId",
          "type": "uint256"
        },
        {
          "internalType": "address",
          "name": "owner",
          "type": "address"
        }
      ],
      "name": "ERC721IncorrectOwner",
      "type": "error"
    },
    {
      "inputs": [
        {
          "internalType": "address",
          "name": "operator",
          "type": "address"
        },
        {
          "internalType": "uint256",
          "name": "tokenId",
          "type": "uint256"
        }
      ],
      "name": "ERC721InsufficientApproval",
      "type": "error"
    },
    {
      "inputs": [
        {
          "internalType": "address",
          "name": "approver",
          "type": "address"
        }
      ],
      "name": "ERC721InvalidApprover",
      "type": "error"
    },
    {
      "inputs": [
        {
          "internalType": "address",
          "name": "operator",
          "type": "address"
        }
      ],
      "name": "ERC721InvalidOperator",
      "type": "error"
    },
    {
      "inputs": [
        {
          "internalType": "address",
          "name": "owner",
          "type": "address"
        }
      ],
      "name": "ERC721InvalidOwner",
      "type": "error"
    },
    {
      "inputs": [
        {
          "internalType": "address",
          "name": "receiver",
          "type": "address"
        }
      ],
      "name": "ERC721InvalidReceiver",
      "type": "error"
    },
    {
      "inputs": [
        {
          "internalType": "address",
          "name": "sender",
          "type": "address"
        }
      ],
      "name": "ERC721InvalidSender",
      "type": "error"
    },
    {
      "inputs": [
        {
          "internalType": "uint256",
          "name": "tokenId",
          "type": "uint256"
        }
      ],
      "name": "ERC721NonexistentToken",
      "type": "error"
    },
    {
      "inputs": [
        {
          "internalType": "address",
          "name": "owner",
          "type": "address"
        }
      ],
      "name": "OwnableInvalidOwner",
      "type": "error"
    },
    {
      "inputs": [
        {
          "internalType": "address",
          "name": "account",
          "type": "address"
        }
      ],
      "name": "OwnableUnauthorizedAccount",
      "type": "error"
    },
    {
      "anonymous": false,
      "inputs": [
        {
          "indexed": true,
          "internalType": "address",
          "name": "owner",
          "type": "address"
        },
        {
          "indexed": true,
          "internalType": "address",
          "name": "approved",
          "type": "address"
        },
        {
          "indexed": true,
          "internalType": "uint256",
          "name": "tokenId",
          "type": "uint256"
        }
      ],
      "name": "Approval",
      "type": "event"
    },
    {
      "anonymous": false,
      "inputs": [
        {
          "indexed": true,
          "internalType": "address",
          "name": "owner",
          "type": "address"
        },
        {
          "indexed": true,
          "internalType": "address",
          "name": "operator",
          "type": "address"
        },
        {
          "indexed": false,
          "internalType": "bool",
          "name": "approved",
          "type": "bool"
        }
      ],
      "name": "ApprovalForAll",
      "type": "event"
    },
    {
      "anonymous": false,
      "inputs": [
        {
          "indexed": true,
          "internalType": "address",
          "name": "previousOwner",
          "type": "address"
        },
        {
          "indexed": true,
          "internalType": "address",
          "name": "newOwner",
          "type": "address"
        }
      ],
      "name": "OwnershipTransferred",
      "type": "event"
    },
    {
      "anonymous": false,
      "inputs": [
        {
          "indexed": true,
          "internalType": "address",
          "name": "from",
          "type": "address"
        },
        {
          "indexed": true,
          "internalType": "address",
          "name": "to",
          "type": "address"
        },
        {
          "indexed": true,
          "internalType": "uint256",
          "name": "tokenId",
          "type": "uint256"
        }
      ],
      "name": "Transfer",
      "type": "event"
    },
    {
      "inputs": [
        {
          "internalType": "address",
          "name": "to",
          "type": "address"
        },
        {
          "internalType": "uint256",
          "name": "tokenId",
          "type": "uint256"
        }
      ],
      "name": "approve",
      "outputs": [],
      "stateMutability": "nonpayable",
      "type": "function"
    },
    {
      "inputs": [
        {
          "internalType": "address",
          "name": "owner",
          "type": "address"
        }
      ],
      "name": "balanceOf",
      "outputs": [
        {
          "internalType": "uint256",
          "name": "",
          "type": "uint256"
        }
      ],
      "stateMutability": "view",
      "type": "function"
    },
    {
      "inputs": [
        {
          "internalType": "uint256",
          "name": "tokenId",
          "type": "uint256"
        }
      ],
      "name": "getApproved",
      "outputs": [
        {
          "internalType": "address",
          "name": "",
          "type": "address"
        }
      ],
      "stateMutability": "view",
      "type": "function"
    },
    {
      "inputs": [
        {
          "internalType": "address",
          "name": "wallet",
          "type": "address"
        }
      ],
      "name": "hasMinted",
      "outputs": [
        {
          "internalType": "bool",
          "name": "",
          "type": "bool"
        }
      ],
      "stateMutability": "view",
      "type": "function"
    },
    {
      "inputs": [
        {
          "internalType": "address",
          "name": "owner",
          "type": "address"
        },
        {
          "internalType": "address",
          "name": "operator",
          "type": "address"
        }
      ],
      "name": "isApprovedForAll",
      "outputs": [
        {
          "internalType": "bool",
          "name": "",
          "type": "bool"
        }
      ],
      "stateMutability": "view",
      "type": "function"
    },
    {
      "inputs": [
        {
          "internalType": "address",
          "name": "to",
          "type": "address"
        }
      ],
      "name": "mintMembership",
      "outputs": [
        {
          "internalType": "uint256",
          "name": "",
          "type": "uint256"
        }
      ],
      "stateMutability": "nonpayable",
      "type": "function"
    },
    {
      "inputs": [],
      "name": "name",
      "outputs": [
        {
          "internalType": "string",
          "name": "",
          "type": "string"
        }
      ],
      "stateMutability": "view",
      "type": "function"
    },
    {
      "inputs": [],
      "name": "owner",
      "outputs": [
        {
          "internalType": "address",
          "name": "",
          "type": "address"
        }
      ],
      "stateMutability": "view",
      "type": "function"
    },
    {
      "inputs": [
        {
          "internalType": "uint256",
          "name": "tokenId",
          "type": "uint256"
        }
      ],
      "name": "ownerOf",
      "outputs": [
        {
          "internalType": "address",
          "name": "",
          "type": "address"
        }
      ],
      "stateMutability": "view",
      "type": "function"
    },
    {
      "inputs": [],
      "name": "renounceOwnership",
      "outputs": [],
      "stateMutability": "nonpayable",
      "type": "function"
    },
    {
      "inputs": [
        {
          "internalType": "address",
          "name": "from",
          "type": "address"
        },
        {
          "internalType": "address",
          "name": "to",
          "type": "address"
        },
        {
          "internalType": "uint256",
          "name": "tokenId",
          "type": "uint256"
        }
      ],
      "name": "safeTransferFrom",
      "outputs": [],
      "stateMutability": "nonpayable",
      "type": "function"
    },
    {
      "inputs": [
        {
          "internalType": "address",
          "name": "from",
          "type": "address"
        },
        {
          "internalType": "address",
          "name": "to",
          "type": "address"
        },
        {
          "internalType": "uint256",
          "name": "tokenId",
          "type": "uint256"
        },
        {
          "internalType": "bytes",
          "name": "data",
          "type": "bytes"
        }
      ],
      "name": "safeTransferFrom",
      "outputs": [],
      "stateMutability": "nonpayable",
      "type": "function"
    },
    {
      "inputs": [
        {
          "internalType": "address",
          "name": "operator",
          "type": "address"
        },
        {
          "internalType": "bool",
          "name": "approved",
          "type": "bool"
        }
      ],
      "name": "setApprovalForAll",
      "outputs": [],
      "stateMutability": "nonpayable",
      "type": "function"
    },
    {
      "inputs": [
        {
          "internalType": "bytes4",
          "name": "interfaceId",
          "type": "bytes4"
        }
      ],
      "name": "supportsInterface",
      "outputs": [
        {
          "internalType": "bool",
          "name": "",
          "type": "bool"
        }
      ],
      "stateMutability": "view",
      "type": "function"
    },
    {
      "inputs": [],
      "name": "symbol",
      "outputs": [
        {
          "internalType": "string",
          "name": "",
          "type": "string"
        }
      ],
      "stateMutability": "view",
      "type": "function"
    },
    {
      "inputs": [
        {
          "internalType": "uint256",
          "name": "tokenId",
          "type": "uint256"
        }
      ],
      "name": "tokenURI",
      "outputs": [
        {
          "internalType": "string",
          "name": "",
          "type": "string"
        }
      ],
      "stateMutability": "view",
      "type": "function"
    },
    {
      "inputs": [
        {
          "internalType": "address",
          "name": "from",
          "type": "address"
        },
        {
          "internalType": "address",
          "name": "to",
          "type": "address"
        },
        {
          "internalType": "uint256",
          "name": "tokenId",
          "type": "uint256"
        }
      ],
      "name": "transferFrom",
      "outputs": [],
      "stateMutability": "nonpayable",
      "type": "function"
    },
    {
      "inputs": [
        {
          "internalType": "address",
          "name": "newOwner",
          "type": "address"
        }
      ],
      "name": "transferOwnership",
      "outputs": [],
      "stateMutability": "nonpayable",
      "type": "function"
    }
  ],
  "bytecode": "0x60806040523480156200001157600080fd5b50336040518060400160405280601181526020017f4e4641204265617273204d697261636c650000000000000000000000000000008152506040518060400160405280600781526020017f4d495241434c4500000000000000000000000000000000000000000000000000815250816000908162000090919062000472565b508060019081620000a2919062000472565b505050600073ffffffffffffffffffffffffffffffffffffffff168173ffffffffffffffffffffffffffffffffffffffff16036200011a5760006040517f1e4fbdf70000000000000000000000000000000000000000000000000000000081526004016200011191906200059e565b60405180910390fd5b6200012b816200013260201b60201c565b50620005bb565b6000600660009054906101000a900473ffffffffffffffffffffffffffffffffffffffff16905081600660006101000a81548173ffffffffffffffffffffffffffffffffffffffff021916908373ffffffffffffffffffffffffffffffffffffffff1602179055508173ffffffffffffffffffffffffffffffffffffffff168173ffffffffffffffffffffffffffffffffffffffff167f8be0079c531659141344cd1fd0a4f28419497f9722a3daafe3b4186f6b6457e060405160405180910390a35050565b600081519050919050565b7f4e487b7100000000000000000000000000000000000000000000000000000000600052604160045260246000fd5b7f4e487b7100000000000000000000000000000000000000000000000000000000600052602260045260246000fd5b600060028204905060018216806200027a57607f821691505b60208210810362000290576200028f62000232565b5b50919050565b60008190508160005260206000209050919050565b60006020601f8301049050919050565b600082821b905092915050565b600060088302620002fa7fffffffffffffffffffffffffffffffffffffffffffffffffffffffffffffffff82620002bb565b620003068683620002bb565b95508019841693508086168417925050509392505050565b6000819050919050565b6000819050919050565b6000620003536200034d62000347846200031e565b62000328565b6200031e565b9050919050565b6000819050919050565b6200036f8362000332565b620003876200037e826200035a565b848454620002c8565b825550505050565b600090565b6200039e6200038f565b620003ab81848462000364565b505050565b5b81811015620003d357620003c760008262000394565b600181019050620003b1565b5050565b601f8211156200042257620003ec8162000296565b620003f784620002ab565b8101602085101562000407578190505b6200041f6200041685620002ab565b830182620003b0565b50505b505050565b600082821c905092915050565b6000620004476000198460080262000427565b1980831691505092915050565b600062000462838362000434565b9150826002028217905092915050565b6200047d82620001f8565b67ffffffffffffffff81111562000499576200049862000203565b5b620004a5825462000261565b620004b2828285620003d7565b600060209050601f831160018114620004ea5760008415620004d5578287015190505b620004e1858262000454565b86555062000551565b601f198416620004fa8662000296565b60005b828110156200052457848901518255600182019150602085019450602081019050620004fd565b8683101562000544578489015162000540601f89168262000434565b8355505b6001600288020188555050505b505050505050565b600073ffffffffffffffffffffffffffffffffffffffff82169050919050565b6000620005868262000559565b9050919050565b620005988162000579565b82525050565b6000602082019050620005b560008301846200058d565b92915050565b61228b80620005cb6000396000f3fe608060405234801561001057600080fd5b50600436106101165760003560e01c806370a08231116100a2578063a22cb46511610071578063a22cb465146102f3578063b88d4fde1461030f578063c87b56dd1461032b578063e985e9c51461035b578063f2fde38b1461038b57610116565b806370a082311461027d578063715018a6146102ad5780638da5cb5b146102b757806395d89b41146102d557610116565b806323b872dd116100e957806323b872dd146101b557806338e21cce146101d157806342842e0e1461020157806352f404ab1461021d5780636352211e1461024d57610116565b806301ffc9a71461011b57806306fdde031461014b578063081812fc14610169578063095ea7b314610199575b600080fd5b610135600480360381019061013091906119bd565b6103a7565b6040516101429190611a05565b60405180910390f35b610153610489565b6040516101609190611ab0565b60405180910390f35b610183600480360381019061017e9190611b08565b61051b565b6040516101909190611b76565b60405180910390f35b6101b360048036038101906101ae9190611bbd565b610537565b005b6101cf60048036038101906101ca9190611bfd565b61054d565b005b6101eb60048036038101906101e69190611c50565b610588565b6040516101f89190611a05565b60405180910390f35b61021b60048036038101906102169190611bfd565b6105de565b005b61023760048036038101906102329190611c50565b6105fe565b6040516102449190611c8c565b60405180910390f35b61026760048036038101906102629190611b08565b610717565b6040516102749190611b76565b60405180910390f35b61029760048036038101906102929190611c50565b610729565b6040516102a49190611c8c565b60405180910390f35b6102b56107e3565b005b6102bf6107f7565b6040516102cc9190611b76565b60405180910390f35b6102dd610821565b6040516102ea9190611ab0565b60405180910390f35b61030d60048036038101906103089190611cd3565b6108b3565b005b61032960048036038101906103249190611e48565b6108c9565b005b61034560048036038101906103409190611b08565b610904565b6040516103529190611ab0565b60405180910390f35b61037560048036038101906103709190611ecb565b61096d565b6040516103829190611a05565b60405180910390f35b6103a560048036038101906103a09190611c50565b610a01565b005b60007f80ac58cd000000000000000000000000000000000000000000000000000000007bffffffffffffffffffffffffffffffffffffffffffffffffffffffff1916827bffffffffffffffffffffffffffffffffffffffffffffffffffffffff1916148061047257507f5b5e139f000000000000000000000000000000000000000000000000000000007bffffffffffffffffffffffffffffffffffffffffffffffffffffffff1916827bffffffffffffffffffffffffffffffffffffffffffffffffffffffff1916145b80610482575061048182610a87565b5b9050919050565b60606000805461049890611f3a565b80601f01602080910402602001604051908101604052809291908181526020018280546104c490611f3a565b80156105115780601f106104e657610100808354040283529160200191610511565b820191906000526020600020905b8154815290600101906020018083116104f457829003601f168201915b5050505050905090565b600061052682610af1565b5061053082610b79565b9050919050565b6105498282610544610bb6565b610bbe565b5050565b6040517f08c379a000000000000000000000000000000000000000000000000000000000815260040161057f90611fb7565b60405180910390fd5b6000600860008373ffffffffffffffffffffffffffffffffffffffff1673ffffffffffffffffffffffffffffffffffffffff16815260200190815260200160002060009054906101000a900460ff169050919050565b6105f9838383604051806020016040528060008152506108c9565b505050565b6000600860008373ffffffffffffffffffffffffffffffffffffffff1673ffffffffffffffffffffffffffffffffffffffff16815260200190815260200160002060009054906101000a900460ff161561068d576040517f08c379a000000000000000000000000000000000000000000000000000000000815260040161068490612023565b60405180910390fd5b6001600860008473ffffffffffffffffffffffffffffffffffffffff1673ffffffffffffffffffffffffffffffffffffffff16815260200190815260200160002060006101000a81548160ff021916908315150217905550600760008154809291906106f890612072565b91905055506000600754905061070e8382610bd0565b80915050919050565b600061072282610af1565b9050919050565b60008073ffffffffffffffffffffffffffffffffffffffff168273ffffffffffffffffffffffffffffffffffffffff160361079c5760006040517f89c62b640000000000000000000000000000000000000000000000000000000081526004016107939190611b76565b60405180910390fd5b600360008373ffffffffffffffffffffffffffffffffffffffff1673ffffffffffffffffffffffffffffffffffffffff168152602001908152602001600020549050919050565b6107eb610bee565b6107f56000610c75565b565b6000600660009054906101000a900473ffffffffffffffffffffffffffffffffffffffff16905090565b60606001805461083090611f3a565b80601f016020809104026020016040519081016040528092919081815260200182805461085c90611f3a565b80156108a95780601f1061087e576101008083540402835291602001916108a9565b820191906000526020600020905b81548152906001019060200180831161088c57829003601f168201915b5050505050905090565b6108c56108be610bb6565b8383610d3b565b5050565b6040517f08c379a00000000000000000000000000000000000000000000000000000000081526004016108fb90611fb7565b60405180910390fd5b606061090f82610af1565b50600061091a610eaa565b9050600081511161093a5760405180602001604052806000815250610965565b8061094484610ec1565b6040516020016109559291906120f6565b6040516020818303038152906040525b915050919050565b6000600560008473ffffffffffffffffffffffffffffffffffffffff1673ffffffffffffffffffffffffffffffffffffffff16815260200190815260200160002060008373ffffffffffffffffffffffffffffffffffffffff1673ffffffffffffffffffffffffffffffffffffffff16815260200190815260200160002060009054906101000a900460ff16905092915050565b610a09610bee565b600073ffffffffffffffffffffffffffffffffffffffff168173ffffffffffffffffffffffffffffffffffffffff1603610a7b5760006040517f1e4fbdf7000000000000000000000000000000000000000000000000000000008152600401610a729190611b76565b60405180910390fd5b610a8481610c75565b50565b60007f01ffc9a7000000000000000000000000000000000000000000000000000000007bffffffffffffffffffffffffffffffffffffffffffffffffffffffff1916827bffffffffffffffffffffffffffffffffffffffffffffffffffffffff1916149050919050565b600080610afd83610f8f565b9050600073ffffffffffffffffffffffffffffffffffffffff168173ffffffffffffffffffffffffffffffffffffffff1603610b7057826040517f7e273289000000000000000000000000000000000000000000000000000000008152600401610b679190611c8c565b60405180910390fd5b80915050919050565b60006004600083815260200190815260200160002060009054906101000a900473ffffffffffffffffffffffffffffffffffffffff169050919050565b600033905090565b610bcb8383836001610fcc565b505050565b610bea828260405180602001604052806000815250611191565b5050565b610bf6610bb6565b73ffffffffffffffffffffffffffffffffffffffff16610c146107f7565b73ffffffffffffffffffffffffffffffffffffffff1614610c7357610c37610bb6565b6040517f118cdaa7000000000000000000000000000000000000000000000000000000008152600401610c6a9190611b76565b60405180910390fd5b565b6000600660009054906101000a900473ffffffffffffffffffffffffffffffffffffffff16905081600660006101000a81548173ffffffffffffffffffffffffffffffffffffffff021916908373ffffffffffffffffffffffffffffffffffffffff1602179055508173ffffffffffffffffffffffffffffffffffffffff168173ffffffffffffffffffffffffffffffffffffffff167f8be0079c531659141344cd1fd0a4f28419497f9722a3daafe3b4186f6b6457e060405160405180910390a35050565b600073ffffffffffffffffffffffffffffffffffffffff168273ffffffffffffffffffffffffffffffffffffffff1603610dac57816040517f5b08ba18000000000000000000000000000000000000000000000000000000008152600401610da39190611b76565b60405180910390fd5b80600560008573ffffffffffffffffffffffffffffffffffffffff1673ffffffffffffffffffffffffffffffffffffffff16815260200190815260200160002060008473ffffffffffffffffffffffffffffffffffffffff1673ffffffffffffffffffffffffffffffffffffffff16815260200190815260200160002060006101000a81548160ff0219169083151502179055508173ffffffffffffffffffffffffffffffffffffffff168373ffffffffffffffffffffffffffffffffffffffff167f17307eab39ab6107e8899845ad3d59bd9653f200f220920489ca2b5937696c3183604051610e9d9190611a05565b60405180910390a3505050565b606060405180602001604052806000815250905090565b606060006001610ed0846111b5565b01905060008167ffffffffffffffff811115610eef57610eee611d1d565b5b6040519080825280601f01601f191660200182016040528015610f215781602001600182028036833780820191505090505b509050600082602001820190505b600115610f84578080600190039150507f3031323334353637383961626364656600000000000000000000000000000000600a86061a8153600a8581610f7857610f7761211a565b5b04945060008503610f2f575b819350505050919050565b60006002600083815260200190815260200160002060009054906101000a900473ffffffffffffffffffffffffffffffffffffffff169050919050565b80806110055750600073ffffffffffffffffffffffffffffffffffffffff168273ffffffffffffffffffffffffffffffffffffffff1614155b1561113957600061101584610af1565b9050600073ffffffffffffffffffffffffffffffffffffffff168373ffffffffffffffffffffffffffffffffffffffff161415801561108057508273ffffffffffffffffffffffffffffffffffffffff168173ffffffffffffffffffffffffffffffffffffffff1614155b80156110935750611091818461096d565b155b156110d557826040517fa9fbf51f0000000000000000000000000000000000000000000000000000000081526004016110cc9190611b76565b60405180910390fd5b811561113757838573ffffffffffffffffffffffffffffffffffffffff168273ffffffffffffffffffffffffffffffffffffffff167f8c5be1e5ebec7d5bd14f71427d1e84f3dd0314c0f7b2291e5b200ac8c7c3b92560405160405180910390a45b505b836004600085815260200190815260200160002060006101000a81548173ffffffffffffffffffffffffffffffffffffffff021916908373ffffffffffffffffffffffffffffffffffffffff16021790555050505050565b61119b8383611308565b6111b06111a6610bb6565b6000858585611401565b505050565b600080600090507a184f03e93ff9f4daa797ed6e38ed64bf6a1f0100000000000000008310611213577a184f03e93ff9f4daa797ed6e38ed64bf6a1f01000000000000000083816112095761120861211a565b5b0492506040810190505b6d04ee2d6d415b85acef81000000008310611250576d04ee2d6d415b85acef810000000083816112465761124561211a565b5b0492506020810190505b662386f26fc10000831061127f57662386f26fc1000083816112755761127461211a565b5b0492506010810190505b6305f5e10083106112a8576305f5e100838161129e5761129d61211a565b5b0492506008810190505b61271083106112cd5761271083816112c3576112c261211a565b5b0492506004810190505b606483106112f057606483816112e6576112e561211a565b5b0492506002810190505b600a83106112ff576001810190505b80915050919050565b600073ffffffffffffffffffffffffffffffffffffffff168273ffffffffffffffffffffffffffffffffffffffff160361137a5760006040517f64a0ae920000000000000000000000000000000000000000000000000000000081526004016113719190611b76565b60405180910390fd5b6000611388838360006115b2565b9050600073ffffffffffffffffffffffffffffffffffffffff168173ffffffffffffffffffffffffffffffffffffffff16146113fc5760006040517f73c6ac6e0000000000000000000000000000000000000000000000000000000081526004016113f39190611b76565b60405180910390fd5b505050565b60008373ffffffffffffffffffffffffffffffffffffffff163b11156115ab578273ffffffffffffffffffffffffffffffffffffffff1663150b7a02868685856040518563ffffffff1660e01b8152600401611460949392919061219e565b6020604051808303816000875af192505050801561149c57506040513d601f19601f8201168201806040525081019061149991906121ff565b60015b611520573d80600081146114cc576040519150601f19603f3d011682016040523d82523d6000602084013e6114d1565b606091505b50600081510361151857836040517f64a0ae9200000000000000000000000000000000000000000000000000000000815260040161150f9190611b76565b60405180910390fd5b805181602001fd5b63150b7a0260e01b7bffffffffffffffffffffffffffffffffffffffffffffffffffffffff1916817bffffffffffffffffffffffffffffffffffffffffffffffffffffffff1916146115a957836040517f64a0ae920000000000000000000000000000000000000000000000000000000081526004016115a09190611b76565b60405180910390fd5b505b5050505050565b6000806115be84610f8f565b9050600073ffffffffffffffffffffffffffffffffffffffff168373ffffffffffffffffffffffffffffffffffffffff1614611600576115ff8184866117cc565b5b600073ffffffffffffffffffffffffffffffffffffffff168173ffffffffffffffffffffffffffffffffffffffff161461169157611642600085600080610fcc565b6001600360008373ffffffffffffffffffffffffffffffffffffffff1673ffffffffffffffffffffffffffffffffffffffff168152602001908152602001600020600082825403925050819055505b600073ffffffffffffffffffffffffffffffffffffffff168573ffffffffffffffffffffffffffffffffffffffff1614611714576001600360008773ffffffffffffffffffffffffffffffffffffffff1673ffffffffffffffffffffffffffffffffffffffff168152602001908152602001600020600082825401925050819055505b846002600086815260200190815260200160002060006101000a81548173ffffffffffffffffffffffffffffffffffffffff021916908373ffffffffffffffffffffffffffffffffffffffff160217905550838573ffffffffffffffffffffffffffffffffffffffff168273ffffffffffffffffffffffffffffffffffffffff167fddf252ad1be2c89b69c2b068fc378daa952ba7f163c4a11628f55a4df523b3ef60405160405180910390a4809150509392505050565b6117d7838383611890565b61188b57600073ffffffffffffffffffffffffffffffffffffffff168373ffffffffffffffffffffffffffffffffffffffff160361184c57806040517f7e2732890000000000000000000000000000000000000000000000000000000081526004016118439190611c8c565b60405180910390fd5b81816040517f177e802f00000000000000000000000000000000000000000000000000000000815260040161188292919061222c565b60405180910390fd5b505050565b60008073ffffffffffffffffffffffffffffffffffffffff168373ffffffffffffffffffffffffffffffffffffffff161415801561194857508273ffffffffffffffffffffffffffffffffffffffff168473ffffffffffffffffffffffffffffffffffffffff1614806119095750611908848461096d565b5b8061194757508273ffffffffffffffffffffffffffffffffffffffff1661192f83610b79565b73ffffffffffffffffffffffffffffffffffffffff16145b5b90509392505050565b6000604051905090565b600080fd5b600080fd5b60007fffffffff0000000000000000000000000000000000000000000000000000000082169050919050565b61199a81611965565b81146119a557600080fd5b50565b6000813590506119b781611991565b92915050565b6000602082840312156119d3576119d261195b565b5b60006119e1848285016119a8565b91505092915050565b60008115159050919050565b6119ff816119ea565b82525050565b6000602082019050611a1a60008301846119f6565b92915050565b600081519050919050565b600082825260208201905092915050565b60005b83811015611a5a578082015181840152602081019050611a3f565b60008484015250505050565b6000601f19601f8301169050919050565b6000611a8282611a20565b611a8c8185611a2b565b9350611a9c818560208601611a3c565b611aa581611a66565b840191505092915050565b60006020820190508181036000830152611aca8184611a77565b905092915050565b6000819050919050565b611ae581611ad2565b8114611af057600080fd5b50565b600081359050611b0281611adc565b92915050565b600060208284031215611b1e57611b1d61195b565b5b6000611b2c84828501611af3565b91505092915050565b600073ffffffffffffffffffffffffffffffffffffffff82169050919050565b6000611b6082611b35565b9050919050565b611b7081611b55565b82525050565b6000602082019050611b8b6000830184611b67565b92915050565b611b9a81611b55565b8114611ba557600080fd5b50565b600081359050611bb781611b91565b92915050565b60008060408385031215611bd457611bd361195b565b5b6000611be285828601611ba8565b9250506020611bf385828601611af3565b9150509250929050565b600080600060608486031215611c1657611c1561195b565b5b6000611c2486828701611ba8565b9350506020611c3586828701611ba8565b9250506040611c4686828701611af3565b9150509250925092565b600060208284031215611c6657611c6561195b565b5b6000611c7484828501611ba8565b91505092915050565b611c8681611ad2565b82525050565b6000602082019050611ca16000830184611c7d565b92915050565b611cb0816119ea565b8114611cbb57600080fd5b50565b600081359050611ccd81611ca7565b92915050565b60008060408385031215611cea57611ce961195b565b5b6000611cf885828601611ba8565b9250506020611d0985828601611cbe565b9150509250929050565b600080fd5b600080fd5b7f4e487b7100000000000000000000000000000000000000000000000000000000600052604160045260246000fd5b611d5582611a66565b810181811067ffffffffffffffff82111715611d7457611d73611d1d565b5b80604052505050565b6000611d87611951565b9050611d938282611d4c565b919050565b600067ffffffffffffffff821115611db357611db2611d1d565b5b611dbc82611a66565b9050602081019050919050565b82818337600083830152505050565b6000611deb611de684611d98565b611d7d565b905082815260208101848484011115611e0757611e06611d18565b5b611e12848285611dc9565b509392505050565b600082601f830112611e2f57611e2e611d13565b5b8135611e3f848260208601611dd8565b91505092915050565b60008060008060808587031215611e6257611e6161195b565b5b6000611e7087828801611ba8565b9450506020611e8187828801611ba8565b9350506040611e9287828801611af3565b925050606085013567ffffffffffffffff811115611eb357611eb2611960565b5b611ebf87828801611e1a565b91505092959194509250565b60008060408385031215611ee257611ee161195b565b5b6000611ef085828601611ba8565b9250506020611f0185828601611ba8565b9150509250929050565b7f4e487b7100000000000000000000000000000000000000000000000000000000600052602260045260246000fd5b60006002820490506001821680611f5257607f821691505b602082108103611f6557611f64611f0b565b5b50919050565b7f536f756c2d626f756e643a206e6f6e2d7472616e7366657261626c6500000000600082015250565b6000611fa1601c83611a2b565b9150611fac82611f6b565b602082019050919050565b60006020820190508181036000830152611fd081611f94565b9050919050565b7f57616c6c657420616c72656164792068617320616e2053425400000000000000600082015250565b600061200d601983611a2b565b915061201882611fd7565b602082019050919050565b6000602082019050818103600083015261203c81612000565b9050919050565b7f4e487b7100000000000000000000000000000000000000000000000000000000600052601160045260246000fd5b600061207d82611ad2565b91507fffffffffffffffffffffffffffffffffffffffffffffffffffffffffffffffff82036120af576120ae612043565b5b600182019050919050565b600081905092915050565b60006120d082611a20565b6120da81856120ba565b93506120ea818560208601611a3c565b80840191505092915050565b600061210282856120c5565b915061210e82846120c5565b91508190509392505050565b7f4e487b7100000000000000000000000000000000000000000000000000000000600052601260045260246000fd5b600081519050919050565b600082825260208201905092915050565b600061217082612149565b61217a8185612154565b935061218a818560208601611a3c565b61219381611a66565b840191505092915050565b60006080820190506121b36000830187611b67565b6121c06020830186611b67565b6121cd6040830185611c7d565b81810360608301526121df8184612165565b905095945050505050565b6000815190506121f981611991565b92915050565b6000602082840312156122155761221461195b565b5b6000612223848285016121ea565b91505092915050565b60006040820190506122416000830185611b67565b61224e6020830184611c7d565b939250505056fea2646970667358221220196133fbca319c2910d389ddd9bef33bd72b4b8afb377bd4dc0be71e26bd650964736f6c63430008170033",
  "linkReferences": {},
  "deployedLinkReferences": {}
}