{
  "_format": "hh-sol-artifact-1",
  "contractName": "NFABearsMembership",
  "sourceName": "contracts/NFABearsMembership.sol",
  "abi": [
    {
      "inputs": [],
      "stateMutability": "nonpayable",
      "type": "constructor"
    },
    {
      "inputs": [],
      "name": "AccessControlBadConfirmation",
      "type": "error"
    },
    {
      "inputs": [
        {
          "internalType": "address",
          "name": "account",
          "type": "address"
        },
        {
          "internalType": "bytes32",
          "name": "neededRole",
          "type": "bytes32"
        }
      ],
      "name": "AccessControlUnauthorizedAccount",
      "type": "error"
    },
    {
      "inputs": [
        {
          "internalType": "address",
          "name": "sender",
          "type": "address"
        },
        {
          "internalType": "uint256",
          "name": "tokenId",
          "type": "uint256"
        },
        {
          "internalType": "address",
          "name": "owner",
          "type": "address"
        }
      ],
      "name": "ERC721IncorrectOwner",
      "type": "error"
    },
    {
      "inputs": [
        {
          "internalType": "address",
          "name": "operator",
          "type": "address"
        },
        {
          "internalType": "uint256",
          "name": "tokenId",
          "type": "uint256"
        }
      ],
      "name": "ERC721InsufficientApproval",
      "type": "error"
    },
    {
      "inputs": [
        {
          "internalType": "address",
          "name": "approver",
          "type": "address"
        }
      ],
      "name": "ERC721InvalidApprover",
      "type": "error"
    },
    {
      "inputs": [
        {
          "internalType": "address",
          "name": "operator",
          "type": "address"
        }
      ],
      "name": "ERC721InvalidOperator",
      "type": "error"
    },
    {
      "inputs": [
        {
          "internalType": "address",
          "name": "owner",
          "type": "address"
        }
      ],
      "name": "ERC721InvalidOwner",
      "type": "error"
    },
    {
      "inputs": [
        {
          "internalType": "address",
          "name": "receiver",
          "type": "address"
        }
      ],
      "name": "ERC721InvalidReceiver",
      "type": "error"
    },
    {
      "inputs": [
        {
          "internalType": "address",
          "name": "sender",
          "type": "address"
        }
      ],
      "name": "ERC721InvalidSender",
      "type": "error"
    },
    {
      "inputs": [
        {
          "internalType": "uint256",
          "name": "tokenId",
          "type": "uint256"
        }
      ],
      "name": "ERC721NonexistentToken",
      "type": "error"
    },
    {
      "inputs": [
        {
          "internalType": "address",
          "name": "owner",
          "type": "address"
        }
      ],
      "name": "OwnableInvalidOwner",
      "type": "error"
    },
    {
      "inputs": [
        {
          "internalType": "address",
          "name": "account",
          "type": "address"
        }
      ],
      "name": "OwnableUnauthorizedAccount",
      "type": "error"
    },
    {
      "anonymous": false,
      "inputs": [
        {
          "indexed": true,
          "internalType": "address",
          "name": "owner",
          "type": "address"
        },
        {
          "indexed": true,
          "internalType": "address",
          "name": "approved",
          "type": "address"
        },
        {
          "indexed": true,
          "internalType": "uint256",
          "name": "tokenId",
          "type": "uint256"
        }
      ],
      "name": "Approval",
      "type": "event"
    },
    {
      "anonymous": false,
      "inputs": [
        {
          "indexed": true,
          "internalType": "address",
          "name": "owner",
          "type": "address"
        },
        {
          "indexed": true,
          "internalType": "address",
          "name": "operator",
          "type": "address"
        },
        {
          "indexed": false,
          "internalType": "bool",
          "name": "approved",
          "type": "bool"
        }
      ],
      "name": "ApprovalForAll",
      "type": "event"
    },
    {
      "anonymous": false,
      "inputs": [
        {
          "indexed": true,
          "internalType": "address",
          "name": "to",
          "type": "address"
        },
        {
          "indexed": false,
          "internalType": "uint256",
          "name": "tokenId",
          "type": "uint256"
        }
      ],
      "name": "MembershipMinted",
      "type": "event"
    },
    {
      "anonymous": false,
      "inputs": [
        {
          "indexed": true,
          "internalType": "address",
          "name": "minter",
          "type": "address"
        }
      ],
      "name": "MinterGranted",
      "type": "event"
    },
    {
      "anonymous": false,
      "inputs": [
        {
          "indexed": true,
          "internalType": "address",
          "name": "minter",
          "type": "address"
        }
      ],
      "name": "MinterRevoked",
      "type": "event"
    },
    {
      "anonymous": false,
      "inputs": [
        {
          "indexed": true,
          "internalType": "address",
          "name": "previousOwner",
          "type": "address"
        },
        {
          "indexed": true,
          "internalType": "address",
          "name": "newOwner",
          "type": "address"
        }
      ],
      "name": "OwnershipTransferred",
      "type": "event"
    },
    {
      "anonymous": false,
      "inputs": [
        {
          "indexed": true,
          "internalType": "bytes32",
          "name": "role",
          "type": "bytes32"
        },
        {
          "indexed": true,
          "internalType": "bytes32",
          "name": "previousAdminRole",
          "type": "bytes32"
        },
        {
          "indexed": true,
          "internalType": "bytes32",
          "name": "newAdminRole",
          "type": "bytes32"
        }
      ],
      "name": "RoleAdminChanged",
      "type": "event"
    },
    {
      "anonymous": false,
      "inputs": [
        {
          "indexed": true,
          "internalType": "bytes32",
          "name": "role",
          "type": "bytes32"
        },
        {
          "indexed": true,
          "internalType": "address",
          "name": "account",
          "type": "address"
        },
        {
          "indexed": true,
          "internalType": "address",
          "name": "sender",
          "type": "address"
        }
      ],
      "name": "RoleGranted",
      "type": "event"
    },
    {
      "anonymous": false,
      "inputs": [
        {
          "indexed": true,
          "internalType": "bytes32",
          "name": "role",
          "type": "bytes32"
        },
        {
          "indexed": true,
          "internalType": "address",
          "name": "account",
          "type": "address"
        },
        {
          "indexed": true,
          "internalType": "address",
          "name": "sender",
          "type": "address"
        }
      ],
      "name": "RoleRevoked",
      "type": "event"
    },
    {
      "anonymous": false,
      "inputs": [
        {
          "indexed": true,
          "internalType": "address",
          "name": "from",
          "type": "address"
        },
        {
          "indexed": true,
          "internalType": "address",
          "name": "to",
          "type": "address"
        },
        {
          "indexed": true,
          "internalType": "uint256",
          "name": "tokenId",
          "type": "uint256"
        }
      ],
      "name": "Transfer",
      "type": "event"
    },
    {
      "inputs": [],
      "name": "DEFAULT_ADMIN_ROLE",
      "outputs": [
        {
          "internalType": "bytes32",
          "name": "",
          "type": "bytes32"
        }
      ],
      "stateMutability": "view",
      "type": "function"
    },
    {
      "inputs": [],
      "name": "MINTER_ROLE",
      "outputs": [
        {
          "internalType": "bytes32",
          "name": "",
          "type": "bytes32"
        }
      ],
      "stateMutability": "view",
      "type": "function"
    },
    {
      "inputs": [
        {
          "internalType": "address",
          "name": "to",
          "type": "address"
        },
        {
          "internalType": "uint256",
          "name": "tokenId",
          "type": "uint256"
        }
      ],
      "name": "approve",
      "outputs": [],
      "stateMutability": "nonpayable",
      "type": "function"
    },
    {
      "inputs": [
        {
          "internalType": "address",
          "name": "owner",
          "type": "address"
        }
      ],
      "name": "balanceOf",
      "outputs": [
        {
          "internalType": "uint256",
          "name": "",
          "type": "uint256"
        }
      ],
      "stateMutability": "view",
      "type": "function"
    },
    {
      "inputs": [
        {
          "internalType": "uint256",
          "name": "tokenId",
          "type": "uint256"
        }
      ],
      "name": "getApproved",
      "outputs": [
        {
          "internalType": "address",
          "name": "",
          "type": "address"
        }
      ],
      "stateMutability": "view",
      "type": "function"
    },
    {
      "inputs": [
        {
          "internalType": "bytes32",
          "name": "role",
          "type": "bytes32"
        }
      ],
      "name": "getRoleAdmin",
      "outputs": [
        {
          "internalType": "bytes32",
          "name": "",
          "type": "bytes32"
        }
      ],
      "stateMutability": "view",
      "type": "function"
    },
    {
      "inputs": [],
      "name": "getTotalSupply",
      "outputs": [
        {
          "internalType": "uint256",
          "name": "",
          "type": "uint256"
        }
      ],
      "stateMutability": "view",
      "type": "function"
    },
    {
      "inputs": [
        {
          "internalType": "address",
          "name": "minter",
          "type": "address"
        }
      ],
      "name": "grantMinterRole",
      "outputs": [],
      "stateMutability": "nonpayable",
      "type": "function"
    },
    {
      "inputs": [
        {
          "internalType": "bytes32",
          "name": "role",
          "type": "bytes32"
        },
        {
          "internalType": "address",
          "name": "account",
          "type": "address"
        }
      ],
      "name": "grantRole",
      "outputs": [],
      "stateMutability": "nonpayable",
      "type": "function"
    },
    {
      "inputs": [
        {
          "internalType": "address",
          "name": "wallet",
          "type": "address"
        }
      ],
      "name": "hasMinted",
      "outputs": [
        {
          "internalType": "bool",
          "name": "",
          "type": "bool"
        }
      ],
      "stateMutability": "view",
      "type": "function"
    },
    {
      "inputs": [
        {
          "internalType": "bytes32",
          "name": "role",
          "type": "bytes32"
        },
        {
          "internalType": "address",
          "name": "account",
          "type": "address"
        }
      ],
      "name": "hasRole",
      "outputs": [
        {
          "internalType": "bool",
          "name": "",
          "type": "bool"
        }
      ],
      "stateMutability": "view",
      "type": "function"
    },
    {
      "inputs": [
        {
          "internalType": "address",
          "name": "owner",
          "type": "address"
        },
        {
          "internalType": "address",
          "name": "operator",
          "type": "address"
        }
      ],
      "name": "isApprovedForAll",
      "outputs": [
        {
          "internalType": "bool",
          "name": "",
          "type": "bool"
        }
      ],
      "stateMutability": "view",
      "type": "function"
    },
    {
      "inputs": [
        {
          "internalType": "address",
          "name": "account",
          "type": "address"
        }
      ],
      "name": "isMinter",
      "outputs": [
        {
          "internalType": "bool",
          "name": "",
          "type": "bool"
        }
      ],
      "stateMutability": "view",
      "type": "function"
    },
    {
      "inputs": [
        {
          "internalType": "address",
          "name": "to",
          "type": "address"
        }
      ],
      "name": "mintMembership",
      "outputs": [
        {
          "internalType": "uint256",
          "name": "",
          "type": "uint256"
        }
      ],
      "stateMutability": "nonpayable",
      "type": "function"
    },
    {
      "inputs": [],
      "name": "name",
      "outputs": [
        {
          "internalType": "string",
          "name": "",
          "type": "string"
        }
      ],
      "stateMutability": "view",
      "type": "function"
    },
    {
      "inputs": [],
      "name": "owner",
      "outputs": [
        {
          "internalType": "address",
          "name": "",
          "type": "address"
        }
      ],
      "stateMutability": "view",
      "type": "function"
    },
    {
      "inputs": [
        {
          "internalType": "uint256",
          "name": "tokenId",
          "type": "uint256"
        }
      ],
      "name": "ownerOf",
      "outputs": [
        {
          "internalType": "address",
          "name": "",
          "type": "address"
        }
      ],
      "stateMutability": "view",
      "type": "function"
    },
    {
      "inputs": [],
      "name": "renounceOwnership",
      "outputs": [],
      "stateMutability": "nonpayable",
      "type": "function"
    },
    {
      "inputs": [
        {
          "internalType": "bytes32",
          "name": "role",
          "type": "bytes32"
        },
        {
          "internalType": "address",
          "name": "callerConfirmation",
          "type": "address"
        }
      ],
      "name": "renounceRole",
      "outputs": [],
      "stateMutability": "nonpayable",
      "type": "function"
    },
    {
      "inputs": [
        {
          "internalType": "address",
          "name": "minter",
          "type": "address"
        }
      ],
      "name": "revokeMinterRole",
      "outputs": [],
      "stateMutability": "nonpayable",
      "type": "function"
    },
    {
      "inputs": [
        {
          "internalType": "bytes32",
          "name": "role",
          "type": "bytes32"
        },
        {
          "internalType": "address",
          "name": "account",
          "type": "address"
        }
      ],
      "name": "revokeRole",
      "outputs": [],
      "stateMutability": "nonpayable",
      "type": "function"
    },
    {
      "inputs": [
        {
          "internalType": "address",
          "name": "from",
          "type": "address"
        },
        {
          "internalType": "address",
          "name": "to",
          "type": "address"
        },
        {
          "internalType": "uint256",
          "name": "tokenId",
          "type": "uint256"
        }
      ],
      "name": "safeTransferFrom",
      "outputs": [],
      "stateMutability": "nonpayable",
      "type": "function"
    },
    {
      "inputs": [
        {
          "internalType": "address",
          "name": "from",
          "type": "address"
        },
        {
          "internalType": "address",
          "name": "to",
          "type": "address"
        },
        {
          "internalType": "uint256",
          "name": "tokenId",
          "type": "uint256"
        },
        {
          "internalType": "bytes",
          "name": "data",
          "type": "bytes"
        }
      ],
      "name": "safeTransferFrom",
      "outputs": [],
      "stateMutability": "nonpayable",
      "type": "function"
    },
    {
      "inputs": [
        {
          "internalType": "address",
          "name": "operator",
          "type": "address"
        },
        {
          "internalType": "bool",
          "name": "approved",
          "type": "bool"
        }
      ],
      "name": "setApprovalForAll",
      "outputs": [],
      "stateMutability": "nonpayable",
      "type": "function"
    },
    {
      "inputs": [
        {
          "internalType": "bytes4",
          "name": "interfaceId",
          "type": "bytes4"
        }
      ],
      "name": "supportsInterface",
      "outputs": [
        {
          "internalType": "bool",
          "name": "",
          "type": "bool"
        }
      ],
      "stateMutability": "view",
      "type": "function"
    },
    {
      "inputs": [],
      "name": "symbol",
      "outputs": [
        {
          "internalType": "string",
          "name": "",
          "type": "string"
        }
      ],
      "stateMutability": "view",
      "type": "function"
    },
    {
      "inputs": [
        {
          "internalType": "uint256",
          "name": "tokenId",
          "type": "uint256"
        }
      ],
      "name": "tokenURI",
      "outputs": [
        {
          "internalType": "string",
          "name": "",
          "type": "string"
        }
      ],
      "stateMutability": "view",
      "type": "function"
    },
    {
      "inputs": [
        {
          "internalType": "address",
          "name": "from",
          "type": "address"
        },
        {
          "internalType": "address",
          "name": "to",
          "type": "address"
        },
        {
          "internalType": "uint256",
          "name": "tokenId",
          "type": "uint256"
        }
      ],
      "name": "transferFrom",
      "outputs": [],
      "stateMutability": "nonpayable",
      "type": "function"
    },
    {
      "inputs": [
        {
          "internalType": "address",
          "name": "newOwner",
          "type": "address"
        }
      ],
      "name": "transferOwnership",
      "outputs": [],
      "stateMutability": "nonpayable",
      "type": "function"
    }
  ],
  "bytecode": "0x60806040523480156200001157600080fd5b5033604051806040016040528060118152602001704e4641204265617273204d697261636c6560781b815250604051806040016040528060078152602001664d495241434c4560c81b81525081600090816200006e9190620002a8565b5060016200007d8282620002a8565b5050506001600160a01b038116620000af57604051631e4fbdf760e01b81526000600482015260240160405180910390fd5b620000ba81620000fc565b50620000c86000336200014e565b50620000f57f9f2df0fed2c77648de5860a4cc508cd0818c85b8b8a1ab4ceeef8d981c8956a6336200014e565b5062000374565b600680546001600160a01b038381166001600160a01b0319831681179093556040519116919082907f8be0079c531659141344cd1fd0a4f28419497f9722a3daafe3b4186f6b6457e090600090a35050565b60008281526007602090815260408083206001600160a01b038516845290915281205460ff16620001f75760008381526007602090815260408083206001600160a01b03861684529091529020805460ff19166001179055620001ae3390565b6001600160a01b0316826001600160a01b0316847f2f8788117e7eff1d82e926ec794901d17c78024a50270940304540a733656f0d60405160405180910390a4506001620001fb565b5060005b92915050565b634e487b7160e01b600052604160045260246000fd5b600181811c908216806200022c57607f821691505b6020821081036200024d57634e487b7160e01b600052602260045260246000fd5b50919050565b601f821115620002a3576000816000526020600020601f850160051c810160208610156200027e5750805b601f850160051c820191505b818110156200029f578281556001016200028a565b5050505b505050565b81516001600160401b03811115620002c457620002c462000201565b620002dc81620002d5845462000217565b8462000253565b602080601f831160018114620003145760008415620002fb5750858301515b600019600386901b1c1916600185901b1785556200029f565b600085815260208120601f198616915b82811015620003455788860151825594840194600190910190840162000324565b5085821015620003645787850151600019600388901b60f8161c191681555b5050505050600190811b01905550565b6116e180620003846000396000f3fe608060405234801561001057600080fd5b50600436106101cf5760003560e01c806370a0823111610104578063aa271e1a116100a2578063d539139311610071578063d5391393146103e4578063d547741f146103f9578063e985e9c51461040c578063f2fde38b1461041f57600080fd5b8063aa271e1a146103a8578063b88d4fde146103bb578063c4e41b22146103c9578063c87b56dd146103d157600080fd5b806391d14854116100de57806391d148541461037257806395d89b4114610385578063a217fddf1461038d578063a22cb4651461039557600080fd5b806370a0823114610346578063715018a6146103595780638da5cb5b1461036157600080fd5b806336568abe1161017157806342842e0e1161014b57806342842e0e146102fa57806352f404ab1461030d5780636352211e1461032057806369e2f0fb1461033357600080fd5b806336568abe146102a857806338e21cce146102bb5780633dd1eb61146102e757600080fd5b8063095ea7b3116101ad578063095ea7b31461023c57806323b872dd14610251578063248a9ca3146102645780632f2ff15d1461029557600080fd5b806301ffc9a7146101d457806306fdde03146101fc578063081812fc14610211575b600080fd5b6101e76101e23660046112ed565b610432565b60405190151581526020015b60405180910390f35b610204610443565b6040516101f3919061135a565b61022461021f36600461136d565b6104d5565b6040516001600160a01b0390911681526020016101f3565b61024f61024a3660046113a2565b6104fe565b005b61024f61025f3660046113cc565b61050d565b61028761027236600461136d565b60009081526007602052604090206001015490565b6040519081526020016101f3565b61024f6102a3366004611408565b61055a565b61024f6102b6366004611408565b610585565b6101e76102c9366004611434565b6001600160a01b031660009081526009602052604090205460ff1690565b61024f6102f5366004611434565b6105bd565b61024f6103083660046113cc565b610619565b61028761031b366004611434565b610634565b61022461032e36600461136d565b61079c565b61024f610341366004611434565b6107a7565b610287610354366004611434565b610803565b61024f61084b565b6006546001600160a01b0316610224565b6101e7610380366004611408565b61085f565b61020461088a565b610287600081565b61024f6103a336600461144f565b610899565b6101e76103b6366004611434565b6108a4565b61024f61025f3660046114a1565b600854610287565b6102046103df36600461136d565b6108be565b61028760008051602061168c83398151915281565b61024f610407366004611408565b610933565b6101e761041a36600461157d565b610958565b61024f61042d366004611434565b610986565b600061043d826109c4565b92915050565b606060008054610452906115a7565b80601f016020809104026020016040519081016040528092919081815260200182805461047e906115a7565b80156104cb5780601f106104a0576101008083540402835291602001916104cb565b820191906000526020600020905b8154815290600101906020018083116104ae57829003601f168201915b5050505050905090565b60006104e0826109e9565b506000828152600460205260409020546001600160a01b031661043d565b610509828233610a22565b5050565b60405162461bcd60e51b815260206004820152601c60248201527f536f756c2d626f756e643a206e6f6e2d7472616e7366657261626c650000000060448201526064015b60405180910390fd5b60008281526007602052604090206001015461057581610a2f565b61057f8383610a39565b50505050565b6001600160a01b03811633146105ae5760405163334bd91960e11b815260040160405180910390fd5b6105b88282610acd565b505050565b60006105c881610a2f565b6105e060008051602061168c83398151915283610a39565b506040516001600160a01b038316907f93e15a6550ecfc8e6edd98132363907de724eed6c5d89ce96917f4d4ff4da1f390600090a25050565b6105b88383836040518060200160405280600081525061050d565b600060008051602061168c83398151915261064e81610a2f565b6001600160a01b03831660009081526009602052604090205460ff16156106b75760405162461bcd60e51b815260206004820152601960248201527f57616c6c657420616c72656164792068617320616e20534254000000000000006044820152606401610551565b6001600160a01b03831661070d5760405162461bcd60e51b815260206004820152601b60248201527f43616e6e6f74206d696e7420746f207a65726f206164647265737300000000006044820152606401610551565b6001600160a01b0383166000908152600960205260408120805460ff19166001179055600880549161073e836115db565b90915550506008546107508482610b3a565b836001600160a01b03167fbab4562ae868d1765ed8452e98bba908a974596c4babc3ada5e90e05e3f433fb8260405161078b91815260200190565b60405180910390a291505b50919050565b600061043d826109e9565b60006107b281610a2f565b6107ca60008051602061168c83398151915283610acd565b506040516001600160a01b038316907f44f4322f8daa225d5f4877ad0f7d3dfba248a774396f3ca99405ed40a044fe8190600090a25050565b60006001600160a01b03821661082f576040516322718ad960e21b815260006004820152602401610551565b506001600160a01b031660009081526003602052604090205490565b610853610b54565b61085d6000610b81565b565b60009182526007602090815260408084206001600160a01b0393909316845291905290205460ff1690565b606060018054610452906115a7565b610509338383610bd3565b600061043d60008051602061168c8339815191528361085f565b60606108c9826109e9565b5060006108e160408051602081019091526000815290565b90506000815111610901576040518060200160405280600081525061092c565b8061090b84610c72565b60405160200161091c929190611602565b6040516020818303038152906040525b9392505050565b60008281526007602052604090206001015461094e81610a2f565b61057f8383610acd565b6001600160a01b03918216600090815260056020908152604080832093909416825291909152205460ff1690565b61098e610b54565b6001600160a01b0381166109b857604051631e4fbdf760e01b815260006004820152602401610551565b6109c181610b81565b50565b60006001600160e01b03198216637965db0b60e01b148061043d575061043d82610d05565b6000818152600260205260408120546001600160a01b03168061043d57604051637e27328960e01b815260048101849052602401610551565b6105b88383836001610d55565b6109c18133610e5b565b6000610a45838361085f565b610ac55760008381526007602090815260408083206001600160a01b03861684529091529020805460ff19166001179055610a7d3390565b6001600160a01b0316826001600160a01b0316847f2f8788117e7eff1d82e926ec794901d17c78024a50270940304540a733656f0d60405160405180910390a450600161043d565b50600061043d565b6000610ad9838361085f565b15610ac55760008381526007602090815260408083206001600160a01b0386168085529252808320805460ff1916905551339286917ff6391f5c32d9c69d2a47ea670b442974b53935d1edc7fd64eb21e047a839171b9190a450600161043d565b610509828260405180602001604052806000815250610e94565b6006546001600160a01b0316331461085d5760405163118cdaa760e01b8152336004820152602401610551565b600680546001600160a01b038381166001600160a01b0319831681179093556040519116919082907f8be0079c531659141344cd1fd0a4f28419497f9722a3daafe3b4186f6b6457e090600090a35050565b6001600160a01b038216610c0557604051630b61174360e31b81526001600160a01b0383166004820152602401610551565b6001600160a01b03838116600081815260056020908152604080832094871680845294825291829020805460ff191686151590811790915591519182527f17307eab39ab6107e8899845ad3d59bd9653f200f220920489ca2b5937696c31910160405180910390a3505050565b60606000610c7f83610eac565b600101905060008167ffffffffffffffff811115610c9f57610c9f61148b565b6040519080825280601f01601f191660200182016040528015610cc9576020820181803683370190505b5090508181016020015b600019016f181899199a1a9b1b9c1cb0b131b232b360811b600a86061a8153600a8504945084610cd357509392505050565b60006001600160e01b031982166380ac58cd60e01b1480610d3657506001600160e01b03198216635b5e139f60e01b145b8061043d57506301ffc9a760e01b6001600160e01b031983161461043d565b8080610d6957506001600160a01b03821615155b15610e2b576000610d79846109e9565b90506001600160a01b03831615801590610da55750826001600160a01b0316816001600160a01b031614155b8015610db85750610db68184610958565b155b15610de15760405163a9fbf51f60e01b81526001600160a01b0384166004820152602401610551565b8115610e295783856001600160a01b0316826001600160a01b03167f8c5be1e5ebec7d5bd14f71427d1e84f3dd0314c0f7b2291e5b200ac8c7c3b92560405160405180910390a45b505b5050600090815260046020526040902080546001600160a01b0319166001600160a01b0392909216919091179055565b610e65828261085f565b6105095760405163e2517d3f60e01b81526001600160a01b038216600482015260248101839052604401610551565b610e9e8383610f84565b6105b8336000858585610fe9565b60008072184f03e93ff9f4daa797ed6e38ed64bf6a1f0160401b8310610eeb5772184f03e93ff9f4daa797ed6e38ed64bf6a1f0160401b830492506040015b6d04ee2d6d415b85acef81000000008310610f17576d04ee2d6d415b85acef8100000000830492506020015b662386f26fc100008310610f3557662386f26fc10000830492506010015b6305f5e1008310610f4d576305f5e100830492506008015b6127108310610f6157612710830492506004015b60648310610f73576064830492506002015b600a831061043d5760010192915050565b6001600160a01b038216610fae57604051633250574960e11b815260006004820152602401610551565b6000610fbc83836000611114565b90506001600160a01b038116156105b8576040516339e3563760e11b815260006004820152602401610551565b6001600160a01b0383163b1561110d57604051630a85bd0160e11b81526001600160a01b0384169063150b7a029061102b908890889087908790600401611631565b6020604051808303816000875af1925050508015611066575060408051601f3d908101601f191682019092526110639181019061166e565b60015b6110cf573d808015611094576040519150601f19603f3d011682016040523d82523d6000602084013e611099565b606091505b5080516000036110c757604051633250574960e11b81526001600160a01b0385166004820152602401610551565b805160208201fd5b6001600160e01b03198116630a85bd0160e11b1461110b57604051633250574960e11b81526001600160a01b0385166004820152602401610551565b505b5050505050565b6000828152600260205260408120546001600160a01b03908116908316156111415761114181848661120d565b6001600160a01b0381161561117f5761115e600085600080610d55565b6001600160a01b038116600090815260036020526040902080546000190190555b6001600160a01b038516156111ae576001600160a01b0385166000908152600360205260409020805460010190555b60008481526002602052604080822080546001600160a01b0319166001600160a01b0389811691821790925591518793918516917fddf252ad1be2c89b69c2b068fc378daa952ba7f163c4a11628f55a4df523b3ef91a4949350505050565b611218838383611271565b6105b8576001600160a01b03831661124657604051637e27328960e01b815260048101829052602401610551565b60405163177e802f60e01b81526001600160a01b038316600482015260248101829052604401610551565b60006001600160a01b038316158015906112cf5750826001600160a01b0316846001600160a01b031614806112ab57506112ab8484610958565b806112cf57506000828152600460205260409020546001600160a01b038481169116145b949350505050565b6001600160e01b0319811681146109c157600080fd5b6000602082840312156112ff57600080fd5b813561092c816112d7565b60005b8381101561132557818101518382015260200161130d565b50506000910152565b6000815180845261134681602086016020860161130a565b601f01601f19169290920160200192915050565b60208152600061092c602083018461132e565b60006020828403121561137f57600080fd5b5035919050565b80356001600160a01b038116811461139d57600080fd5b919050565b600080604083850312156113b557600080fd5b6113be83611386565b946020939093013593505050565b6000806000606084860312156113e157600080fd5b6113ea84611386565b92506113f860208501611386565b9150604084013590509250925092565b6000806040838503121561141b57600080fd5b8235915061142b60208401611386565b90509250929050565b60006020828403121561144657600080fd5b61092c82611386565b6000806040838503121561146257600080fd5b61146b83611386565b91506020830135801515811461148057600080fd5b809150509250929050565b634e487b7160e01b600052604160045260246000fd5b600080600080608085870312156114b757600080fd5b6114c085611386565b93506114ce60208601611386565b925060408501359150606085013567ffffffffffffffff808211156114f257600080fd5b818701915087601f83011261150657600080fd5b8135818111156115185761151861148b565b604051601f8201601f19908116603f011681019083821181831017156115405761154061148b565b816040528281528a602084870101111561155957600080fd5b82602086016020830137600060208483010152809550505050505092959194509250565b6000806040838503121561159057600080fd5b61159983611386565b915061142b60208401611386565b600181811c908216806115bb57607f821691505b60208210810361079657634e487b7160e01b600052602260045260246000fd5b6000600182016115fb57634e487b7160e01b600052601160045260246000fd5b5060010190565b6000835161161481846020880161130a565b83519083019061162881836020880161130a565b01949350505050565b6001600160a01b03858116825284166020820152604081018390526080606082018190526000906116649083018461132e565b9695505050505050565b60006020828403121561168057600080fd5b815161092c816112d756fe9f2df0fed2c77648de5860a4cc508cd0818c85b8b8a1ab4ceeef8d981c8956a6a26469706673582212209df500086257e7785f609a7074369d81b82d9f15cd6a1412c8d5add47b588d6564736f6c63430008180033",
  "linkReferences": {},
  "deployedLinkReferences": {}
}